:20000000F8410020715C000001CA011001CA011001CA011001CA011001CA011001CA011092
:1C00200001CA011001CA011001CA011001CA011001CA011001CA01103FCA011082
:20003C001CB501682E482A4C016041F2883029490090204603F024FF2749204607F020FCCB
:20005C001F20522104F00CFF0098401E009002E00098401E00900098B0F1FF3FF8D1202065
:20007C00FA2104F0FDFE2120002104F0F9FE2220322104F0F5FE2320642104F0F1FE2420A2
:20009C00002104F0EDFE2520DC2104F0E9FE2620052104F0E5FE27201F2104F0E1FE2C203E
:2000BC00032104F0DDFE2D20062104F0D9FE07F086FC06F0F7FD0949204606F08DF82A2012
:2000DC00B02104F0CDFE2B20C02104F0C9FE1CBD601E0020307F0000ED7900000300058079
:0400FC00B81E00200A
:200100003C000000000000000000000034010000000000000000000001000000000000006D
:1C01200000000000000000000000000001000000000000000800000000000000BA
:20013C00340000000000000000000000680100000000000000000000010000000000000005
:14015C00010000000000000000000000080000000000000086
:2001700030000000000000000000000098010000040000000000000001000000FFFFFFFFA5
:10019000FF00000001000000080000000000000057
:2001A0002C0000000000000000000000C4010000040000000000000001000000FFFFFFFF4D
:0C01C000FFFFFFFF08000000000000002F
:2001CC0034050000E401000099A1011095A70110A5C2011009B2011045B80110000000000B
:0801EC00000000002F000000DC
:2001F400280000000000000000000000140200000000000000000000FFFFFFFF00000000B1
:080214000800000000000000DA
:20021C00300500003002000069C201106DC101101FC2011095BA011000000000000000008E
:04023C002D00000091
:20024000300500005402000075C20110A9B601109DBF011049B601100000000000000000DE
:040260002E0000006C
:200264002400000000000000000000008002000000000000000000000000000008000000CC
:040284000000000076
:20028800240000000000000000000000A40200000000000000000000000000000800000084
:0402A8000000000052
:2002AC00240000000000000000000000C8020000000000000100000000000000080000003B
:0402CC00000000002E
:2002D0000000000034060020040000000000000000000000200000007001000030000000EF
:2002F0001C020000600600200400000000000000000000000C0000003004000018000000EE
:20031000400200006C0600200400000000000000000000002400000048040000180000006D
:20033000000000007406002004000000000000000000000010000000A00100002C00000032
:20035000CC0100007C06002004000000000000000000000020000000640200002400000070
:20037000FFFFFFFF9C060020040000000000000000000000280000008802000024000000D5
:20039000FFFFFFFFCC060020040000000000000000000000580000003C0100003400000092
:2003B000FFFFFFFFD4060020040000000000000000000000100000006004000018000000A7
:2003D000FFFFFFFFDC0600200400000000000000000000001C000000AC020000240000001D
:2003F000FFFFFFFFE406002004000000000000000000000038000000F4010000280000008E
:20041000FFFFFFFFEC06002004000000000000000000000054000000000100003C00000029
:1804300018000000000000000000000040040000080000000000000050
:1804480018000000000000000000000058040000080000000000000020
:18046000180000000000000000000000700400000800000000000000F0
:0804780001000000A87F000054
:0404800005F01ABCAD
:040484000100000073
:0404880000000C0064
:04048C0000000D005F
:040490003200000036
:040494000100000063
:040498003C060020FE
:04049C00000200005A
:0404A0000000000058
:0404A40001CA011078
:0404A8000000000050
:0404AC00000000004C
:0404B0000800000040
:0404B4000000210023
:0404B80070080020A8
:0404BC00010000003B
:0404C000840600208E
:0404C400080000002C
:0404C8000000000030
:0404CC00000000002C
:0404D0000000000028
:0404D4000000000024
:0404D8000000000020
:0404DC00010000001B
:0404E000D808002018
:0404E400060000000E
:0404E800010000000F
:0404EC009C07002049
:0404F0000000000008
:0404F4000000000004
:0404F80000020000FE
:0404FC0000000000FC
:02050000704742
:020502002900CE
:020504000100F4
:020506002500CE
:020508002D00C4
:02050A002E00C1
:02050C002F00BE
:02050E000100EA
:0105100001E9
:08051400030000006C7F0000F1
:08051C000000000000000000D7
:0405240000000100D2
:0405280000000300CC
:04052C0087C401106F
:04053000380500008A
:040534003805000086
:0405380000000000BF
:04053C00900000002B
:040540009000000027
:0405440000000000B3
:040548008406002005
:04054C009B7600009A
:040550002000000087
:040554000C7F000018
:04055800307E0000F1
:04055C000DC30110BA
:040560007F5D0000BB
:04056400BF5E000076
:0405680099C801101D
:04056C009BC8011017
:040570000000000087
:040574000B7E0000FA
:04057800B47D00004E
:04057C00CC7D000032
:040580009C7D00005E
:0205840008006D
:0205860009006A
:02058800010070
:02058A0000006F
:01058C00016D
:040590000000000067
:040594000000000063
:04059800000000005F
:04059C00000000005B
:0405A000317A0000AC
:0405A4009D62000054
:0405A800E96C0000FA
:0405AC00B56700002F
:0405B0006F65000073
:0405B400E5670000F7
:0405B800994C00005A
:0405BC0017780000AC
:0405C00005510000E1
:0405C40011C8011049
:0405C80021C8011035
:0405CC000800000023
:0405D0002400000003
:0405D400180000000B
:0405D80028000000F7
:0405DC0020000000FB
:0405E0003C000000DB
:0405E4000C00000007
:0405E80034000000DB
:2005EC00D74A2DE9F04F0126ADF1140D02F141010490D148C1F8CF6F0768002FFCD0D14837
:20060C00C02344380360CD4B029003F108000068800804D25868000C40F0F00000E0722042
:20062C00D94FDA4C0193002587F84C02A4F1DC081846C1F8FF5FD0F80CA058F8040CC0F365
:20064C00046007F0CDF800EB2A70401C162805DA10F10A0FB8BF6FF0090000E0152000F072
:20066C001F0040F4F850A7F864021068800828BF4AF0406AC6494FEADA604FEA9A6580F0D9
:20068C00010000F00100086085F0010000F001008860504604F09CF900220446154607F0C8
:2006AC00E5F800B935462A46BA4D2B68002BFCD0DFF8E49209F10809C9F810402E600AB16A
:2006CC0007F0DAF806F082FE80B20090B24840F2FF3200232C2105F06BF906F0F9FF0446AF
:2006EC0007F0C4F84FF0000B00B9B3462B68002BFCD0C9F81440BBF1000F2E6001D007F08F
:20070C00BBF806F023FD044607F0B0F84FF0000B00B9B3462B68002BFCD0C9F80C40BBF1DC
:20072C00000F2E6001D007F0A7F806F02BFE044607F09CF84FF0000B00B9B3462B68002BFB
:20074C00FCD0C9F80840BBF1000F2E6001D007F093F8049803F0CAFF044607F087F84FF0C5
:20076C00000B00B9B3462B68002BFCD0C9F80440BBF1000F2E6001D007F07EF804990846AF
:20078C0006F0E8FD844C4000403440F0200084F80901084606F0EAFD40F0100084F8090127
:2007AC00084606F077FB039007F060F84FF0000B00B9B3462B68002BFCD00398C9F8200093
:2007CC00BBF1000F2E6001D007F056F80499084606F0E4FD400040F0600084F80C01084645
:2007EC0006F0E8FDC00040F0800084F80101084606F0F8FD800040F47C40A4F89C010846F4
:20080C0006F0B8FA039007F031F84FF0000B00B9B3462B68002BFCD00398C9F80000BBF1E3
:20082C00000F2E6001D007F027F84FF480002060D8F8580040F20F216FF31F40814215D9E9
:20084C00D8F80000D8F80030C0F30365C3F3034005B16D1E072805D006280EBF0720801CA5
:20086C0000F00F0045EA001007F8080CCAF38140401E02D0401E28D024E0D8F8D000810CE6
:20088C0020D24FF480412160D7F80210420AC0F3033502F0800221F08F010A4345EA020129
:2008AC00C7F80210D7F80120031263F30302C7F80120396800F0E70521F0E70145EA010075
:2008CC00386002E04FF0004020604FF40070206406F0F6FE40F03000334F84F8C800CAF38F
:2008EC00815088B3401E03D0401E20D002211FE0304606F055FC05460420294604F07AFF37
:20090C00042006F04DFC8542FAD10198056825F07F4005F0E9FE3846143000680368072163
:20092C004FF06022280E98474FF4806020600321042004F05FFF0EE094022243A83F005078
:20094C000000094044600C400420314604F052FF124805F0C9FED8F8B0001149114B47F6E9
:20096C00180500F03F0084F8CB0F3A460D8018681068C16802208847402102980B4C0160F7
:20098C0005B02660BDE8F08F0A600840981300500000204300800C4000A00C40BD378600AA
:2009AC0070B00C402C200940A0010010940460422DE9FE4FDFF81CA30F460646F80B80F032
:2009CC003881B80880F0D180DFF8B492B04ADFF8CCB2DFF8D482B80F80F08180A748017898
:2009EC00012960D0380960D3002448460470A54801260670A448007810B1204606F032FCBE
:200A0C00A24806F009FFA3491046224606F0FDFFA148A84DDFF8989203787BB3594609789E
:200A2C0001292BD09E4E306810B306F0E1FD41460968401A9B49000B08609C490A688018D2
:200A4C0008603268B0EBC21F12D30C60484640F609010180417B01F0F00141F001014173E7
:200A6C004480017B01F0F00101734460286017E091484FF0005106F081FD11E0067040F637
:200A8C00090148460180417B01F0F00141F0010141734480017B01F0F001017344602860EA
:200AAC0027F00807E2E0390914D2B80BC0F0DE805046001D06F0B2FF041C08D0606830B14E
:200ACC00E068B4F91010646886A20CCAA04727F40057CBE0002127F008070170C6E0774909
:200AEC001046002206F091FFF06840F6C41181421CD1042006F054FBC0B145462868A8B18B
:200B0C006F4C206890B906F073FD20602968814204D229682068401A000B02E0401A401E15
:200B2C00000BF060F06800F58D70F0605C46207858B10220ADF80000684606F04BFABDF80C
:200B4C00080060490880002020700121484601705D490878401C08705C490020087019200F
:200B6C0006F0FEFD27F0005780E0DFF86481404606F054FF041C53D005F00CFD0026226A2C
:200B8C0026626068D0B194F8240042F002020023401E0BD0401E05D0801E0AD153A090E81F
:200BAC000C0006E053A090E80C0002E053A090E80C006568E068B4F91010A8475546B5F94D
:200BCC001200401C6FF31F306882404606F06AFCE068B0F98C10B5F91220914220D13E4966
:200BEC00097801291CD090F88E509DB905688DB13A4909680968B1F1FF3F11D038490968D3
:200C0C006830B5FBF1F106F0F5FFE068683006F0EDFF05E0E168304681F88E0003F0D2FF83
:200C2C00404606F0FBFE27F00207F8B147F002071CE006F0D7FF01465046083006F0EEFE6B
:200C4C000446256A084606F0C9FFA8080CD25CB1206AA8432062606830B1E068B4F9101053
:200C6C0064682A460023A04727F480471FB11248394606F083FCBDE8FE8FC046151F002096
:200C8C00111F00200F1F00201D1F0020A5450000E01D0020ED6D0000131F00200E1F00204E
:200CAC00B41E0020DC1E0020D41E0020A41E00202C1E0020001004404C1C00203D23000082
:200CCC00D81E0020381D00201E1F0020101F0020241E0020181E0020A4090020E01E00202E
:200CEC00A07F00000000000020000000000000000000001000000000000000400000000059
:200D0C00000000202DE9F04F0128ADF1140D40F0F280DFF81492D9F8DC00012840F0E980DC
:200D2C000220C9F8DC0006F055FF0290012004F087FE20B101210646C9F8DC10D5E006F0DB
:200D4C0045FF03906E484FF00008C0F80080012006F026FA012818BFCDF8008004D14046A4
:200D6C0004F0ACFB0120009066486E4CC0F800801934D4F8FF0F112006F096FD00280CBFA7
:200D8C0046460126102006F08FFD08B146F002060F2006F089FD08B146F004060B2006F026
:200DAC0083FD30B1584800685849006B0246088890470A2006F078FD0028404618BF0120C8
:200DCC004FF0805B0BF5DC7528B128685049006B0246088890474F480127076028688069E1
:200DEC00014646F0200088474B48076006F056FD00F001010191400815D2484806F0E2FC21
:200E0C008246BAF1040FF8D0BAF1010F06D1DBF8D8014068024641480321904740490868CD
:200E2C0020F003000860404600F086F92868D4F8FF1F806B8047019801280ED0BAF1010FAF
:200E4C0006D1DBF8D801406802463448394690473349086840F0030008602A480760286851
:200E6C0040690146304688470B2006F01DFD28B128682649C06A0246088890470A2006F025
:200E8C0013FD28B128682249C06A024608889047204807600322C9F8DC201F4BC3F8008033
:200EAC002868406B0146304688470128F8D1042004F0C6FD124807601A48D4F8FF1F01681C
:200ECC008909FCD30098012802D1384604F0F6FA06F0D2FC082004F0B3FD06460398C9F877
:200EEC00DC7006F06FFE04F0D9F8029806F066FE02E0042600E00126304605B0BDE8F08F1C
:200F0C000C40094000022243B8010010327D00002E7D0000282008608001044300400340AB
:200F2C002422084014100940200500202DE9F84FDFF8D091484606F071FD16468846009024
:200F4C0006F050FEDFF8C0C10024032706F0010A8346B8F1FF3F0ED1484645682DB9B0F941
:200F6C001200401C0FFA80F803E060460068B0F91080664804704046654DDFF89C8181106D
:200F8C0000EB517121F00701401AC10001EB4011604600686D18A8427ED00098DFF874A1D8
:200FAC00854201D0A14625E0504606F083F8B00804D2484601680968016001E04846046070
:200FCC00584606F00BFE009991F8240040F0040081F82400684606F065FA0146404605F08C
:200FEC0059F8009808B1B008EDD2832709E00098006800900098E8B9832F02D0584606F058
:20100C00EDFD4648474A007801280ED0444806F003FC0221104606F0B1FA43480078012875
:20102C006DD0424806F0F8FB69E01046022106F0A5FA64E0006885421DD1504606F03AF87E
:20104C0000980168C0F800905846009106F0C6FDB0080ED2009991F8240040F0040081F8C8
:20106C002400684606F01EFA0146404605F012F800E001248327002CB9D0009991F824000E
:20108C0040F0040081F82400684606F00BFA0146404604F0FFFFADE7B00803D348460168F2
:2010AC000091046095F82410012000FA0AF0084385F8240006F08AFDBAF1000F044601D01B
:2010CC001B4800E01B4805F085FF584606F086FDB00810D30CE090F8241041F0040180F8DD
:2010EC002410684606F0DEF90146404604F0D2FF00980028EFD1204606F064FD832738463E
:20110C00BDE8F88F181E00201C1E0020411D0020F0160020FC1C0020241E0020101F00205A
:20112C00BD0900004C1C0020111F00207132000001000204010001042DE9F84F82467A486E
:20114C00DFF8D89135380068800880F0D78005F0FDFC054678480830D0F8008000244FEA49
:20116C002876761C5FEA98500AD2C5F13E0015F10A0F4FEAE000D8BF08208642B8BF061CDA
:20118C00634FD7F87C01C0F3046006F029FB83463868C0F3044006F023FB06EB0B02009012
:2011AC00162A05DA12F10A0FB8BF6FF0090200E01522584B584F02F01F0141F4F85119807D
:2011CC00396811F0030F18BF0124C90828BF44F00204BAF1000F18BF44F00404494691F97B
:2011EC000730EB1A052B04DA8B79A34208BF888863D0DFF82CE10F2DA5F10F0325DB03EBF0
:20120C0003134FEA232CBCF1070F88BF4FF0070C6746062F88BF06275EF82700042606EBDA
:20122C0087067746BE59361A06F0FF07E00824BFC6F307200744A00824BFC6F30740074429
:20124C00600828BF07EB166701E00027BC465EF82CE0E0080EF0FF0624BFCEF30720064458
:20126C00A00824BFCEF307400644600828BF06EB1E660098A3EB0C23BFB25F438037801A08
:20128C0006EB1726D8BF0120342208F0FF0742437A43B2FBF6F04FF6FF72824238BF101C96
:2012AC00802D80B2888005DA15F1800FB8BF6FF07F0500E07F25CD718C711A4A12681F2889
:2012CC000A604FF0000208D340F2FF11814206D24008521C8142FBD301E01F208880134FCE
:2012EC0011490F38000942EAC00247EA0200C1F8FB0F0026C1F8FF6FBDE8F88F0D4F0C4E25
:20130C00494608203760891D0870BDE8F88FC0463C1100506E62084024220840981E00200A
:20132C009C130050082009403500094000E7A48030100940FDFDA400AC3F00502DE9F84FE9
:20134C00994692468B46064606F04CFCDFF8A4810090B8F91210B8F910000AAF401A40F606
:20136C00F8710140082905DB009806F037FC6FF00100BCE0B8F91000401C6FF31F30A8F87B
:20138C001000B8F91050009806F028FC5A4C2846811000EB517121F00701401AC10001EBFC
:2013AC00401106F16800641805F084FEC4F808B084F812A0C4F804902582E66097E803001D
:2013CC005BA20CCA02400B4004F1180080E80C00002784F82470D8F8000000286BD140462F
:2013EC00214604F057FE50B9B8F9100000F6FF706FF31F30A8F810006FF0010077E0A6F84C
:20140C008C5006F0EFFB86F88E703C49DFF8F0900E7866B14A4616784EB13A4B01221A70C0
:20142C000F703949394A0F701178491C117006F0D5FB4046001D006800283AD14A46107812
:20144C00012833D032480078012832D006F0CAFB009030480078012821D0A06804F058F896
:20146C002D49086038B9009806F0B8FB2B48042106F084F81DE02B4800680968C068091AB2
:20148C002948274C0068B1FBF0F1204606F0B2FB204606F0ABFB009806F0A0FB09E00098B2
:2014AC0006F09CFB21490120087002E0192006F057F928461BE006F095FB07462146404606
:2014CC0004F0E8FD30B1A6F88C50384606F086FB28460CE04046B0F9101001F6FF716FF365
:2014EC001F310182384606F079FB6FF00100BDE8F88FC046181E0020F0160020141F0020C4
:20150C00111F0020151F00200E1F00201E1F0020101F00200F1F0020B41E00204C1C00205A
:20152C00FC1C0020E01E0020A07F0000121F0020F1EFFF9F200000002DE9F0411C46154637
:20154C008C4208BF854282BF00230022E5E0002C08BF002D0AD100290EBF00286FF0000060
:20156C006FF0000100F0E1F8BDE8F0815FF000085FF0000E002C08BF8D429CBF2C1C0025E2
:20158C00070C47EA01470E0CB44208BFBD429EBF5FEA044444EA15445FEA0545070A47EA93
:2015AC0001670E0AB44208BFBD429EBF5FEA042444EA15645FEA0525470847EAC1774E08ED
:2015CC00B44208BFBD4200F29380870847EA81778E08B44208BFBD427CD8C70847EA417728
:2015EC00CE08B44208BFBD4266D8070947EA01770E09B44208BFBD4250D8470947EAC167B2
:20160C004E09B44208BFBD423AD8870947EA81678E09B44208BFBD4224D8C70947EA4167F8
:20162C00CE09B44208BFBD420DD8E60146EA5566EF01B14208BFB84201D3C01BB14158EBCC
:20164C0008085EEB0E0EA60146EA95664FEA8517B14208BFB84201D3C01BB14158EB0808BA
:20166C004EEB0E0E660146EAD5666F01B14208BFB84201D3C01BB14158EB08084EEB0E0ECA
:20168C00260146EA15762F01B14208BFB84201D3C01BB14158EB08085EEB0E0EE60046EA09
:2016AC005576EF00B14208BFB84201D3C01BB14158EB08084EEB0E0EA60046EA9576AF00D7
:2016CC00B14208BFB84201D3C01BB14158EB08084EEB0E0E660046EAD5766F00B14208BFF7
:2016EC00B84201D3C01BB14158EB08085EEB0E0EA14208BFA84201D3401BA14158EB080893
:20170C005EEB0E0EA34208BFAA423EBF2D0A45EA0465240A89D3734642461E4617460B4617
:20172C00024631463846BDE8F08170472DE9F843814606F09BF8002100B901216B4E3068A5
:20174C000028FCD06C4D01242D1DEF6A346009B106F092F8DFF89881C7F3072008F1BC01B3
:20176C00086006F083F8002100B9214630680028FCD02F68346009B106F07EF8C7F38440E8
:20178C00C8F8C00006F072F80146002001B92046014630680028FCD0ED69346009B106F069
:2017AC006BF8C5F38120C8F8D000B9F5C061C8F8B81000F0968098F8D80068B9C8F8D41047
:2017CC00D8F8C000C8F8C800D8F8BC70C8F8C470D8F8D060C8F8CC60D8F8D410D8F8BC6069
:2017EC00002954BF02206FF00100454605F1C8031A6801EB41014018411000EB917002EBA1
:20180C00A0021A60D5F8C810C5F8C46000291CDD1E293DDDD5F8CC0030B93429B4BF1539F7
:20182C001E21C5F8C81025E02A29BABFD5F8C8000B381E20C5F8C800D5F8C4003F28B4BFF1
:20184C00401C3F20C5F8C4001FE0D5F8CC00032812D011F10B0FC6BFD5F8C8000B30201CEE
:20186C00C5F8C800D5F8C4000028CCBF401E0020C5F8C400032009E011F1150FC6BFD5F810
:20188C00C8001530201CC5F8C8000020C5F8CC00B5F8C400174E30214FF47F4208230090DF
:2018AC00304604F085F8009404214FF400321123304604F07DF8B5F8C80004214FF4F8021D
:2018CC0012230090304604F073F8B5F8CC0020214FF440620A230090304604F069F8BDE896
:2018EC00F883002088F8D800BDE8F88300800C402005002000A00C4000A00C402DE9F04F8B
:20190C000746ADF1840D00F0A3FD03F0E5FF0025012804D105F012FD022800D101255A49ED
:20192C00C868C0F38150012804D10868010E012088400543554800785648554E0068C0F3C8
:20194C004600306003F0C8FF012806D105F0F6FC022802D13068401C306030464E49066808
:20196C0000242EB1FF2302680B55641CA242FAD8002682464FF00109884634460DE0DAF8F8
:20198C000010814203D909FA00F10D4201D0022077E008F800400E43641C57F8240000F08B
:2019AC00FF00FE28EBD1092001F090FB3B48002124220823076001A806F0FCF838488DF881
:2019CC001C90494601AA06F0F1F850460368002443B3DFF8D48020944FF0040B09FA04F1F6
:2019EC000D4218D12F480E4206D104F0FF0141F4C04101F0CFFE05E02749095D57F82110E2
:201A0C0001F0C8FEE0B24FF0FF3105F0E5FB209848F8240001E048F824B0DAF80000641CCA
:201A2C00A042DBD80AA800213022082306F0BAF81E4D204A2878002410210AAB12901C4888
:201A4C00009406F0ABF816A828220823214606F0A1F86868194916AA23461C9016481D940E
:201A6C0006F094F8164951F80D0C20F4F85040F4005041F80D0C4846C1F8FF0F11490860CE
:201A8C00204621B0BDE8F08FA83F0050161F0020A01E002080120840681D0020E81E0020D0
:201AAC00C41D0020007FC767B41A0020787F0000A81D002001720000181C0020E95B000097
:201ACC000D30094008000940B0B501464D688C682A7B5E490020ADF1180D012A20D0207EE6
:201AEC000A46104300905A48617E0843019059492F7E022037F0010704D1A07E02430292DE
:201B0C00032004E0A27E0A434DF82020401C95F88D20FF2A1CD011434DF82010401C17E0F9
:201B2C00227E42F000424DF82020627E401C11434DF82010A17E401C41F000414DF8201099
:201B4C00454995F88D20401C11434DF82010401CFE214DF8201005F19000694602F098F9E4
:201B6C00C5F89C0008B900206DE0297B3B4850F82100012835D02068B0F1804F01D10A221E
:201B8C0000E02222D5F89C00217E04F01DFF2068B0F1804F01D1092200E02122D5F89C007C
:201BAC00617E04F011FF2068B0F1804F01D10C2200E02422D5F89C00A17E04F005FF95F80B
:201BCC008D00FF283ED02068B0F1804F01D10B2200E02322D5F89C0095F88D1004F0F4FEA2
:201BEC0030E02068B0F1804F01D1092200E02122D5F89C00217E04F0E7FE2068B0F1804FD8
:201C0C0001D10A2200E02222D5F89C00617E04F0DBFE2068B0F1804F01D10C2200E0242263
:201C2C00D5F89C00A17E04F0CFFE2068B0F1804F01D10B2200E02322D5F89C0095F88D10A0
:201C4C0004F0C2FE012006B0B0BDC046000480A0004000800004C0A000200080CC7C00004A
:201C6C002DE9FC415D4C564D564EDFF85C81594F94F8E410481E0B2800F29F80DFE800F0D8
:201C8C00772C43062343062343067260042907D001220A2945F8212C14BF0220032004E0C2
:201CAC002021012045F8211C024684F8E200002045F8390C0827C5F8FF7FC5F8F37F45F81E
:201CCC00392CBDE8FC81052914BF09200620002584F8E40035606CE094F8E1700120383D48
:201CEC00002FC5F81B0004BF0620002102D00021F160032084F8E400032045F8010C316002
:201D0C003068800855D294F8E400012503280DD00021404660220523009103F049FE94F82A
:201D2C00E400062814BF0A200720D1E702200090002160220523404603F03AFE0420C7E7A9
:201D4C002249002622480E60012505600E2001F053F9022004F080FC84F8E45084F8E36017
:201D6C00BDE8FC81002038600C2578601FE01A48006800680146202088472C3D41F61D56DA
:201D8C000F2000214FF4C072072345F8010C4046C5F803600225009503F00AFE40460021FA
:201DAC004FF4C072072304F005F80120386084F8E45004F1780005F019FFBDE8FC81C0467C
:201DCC0039400C4038600C4000A00C402C500C4004800C4034600C40A001001020050020F4
:201DEC002DE9F041544D0F46A0F2023114460026082900F28580DFE801F0635D452D251D01
:201E0C00150D05C0012F79D12078042876DA434908707FE0012F71D1207808286EDA4049D3
:201E2C00087077E0062F69D13E4821680160A18881806FE0012F61D1207804285EDA3A498E
:201E4C00087067E0012F59D12078042856DC374908705FE0202F51DADFF8D48031461F22D3
:201E6C00404602F039FA21463A46404601F02AFF3048077028783A463146434603F050FDD5
:201E8C00064647E0202F39DADFF8B08031461F22404602F021FA21463A46404601F012FFA0
:201EAC002748077028783A460121434603F038FD06462FE0022F21D120882249088029E01B
:201ECC00012F1BD1204A21781078204B117048B139B91846007802281CD1287805F0E8FB13
:201EEC0018E0B8B91078A8B118460078012801D003280FD1012005F005FB0BE0182609E089
:201F0C00282801DA022F01D0022603E0218804F0DBF906463046BDE8F081C0461A1F0020D5
:201F2C00171F002042070020181F0020191F00202307002022070020201F0020030700200B
:201F4C000207002000070020FE0600201C1F002030B5ADF15C0D04F0BBF804F07DF945481C
:201F6C00454904F005FD464805F041FC43490125086000248DF800506A46ADF80240032044
:201F8C0029468DF8040040F20230FFF729FF40F2033002210DF10202FFF722FF394A40F265
:201FAC0005301121FFF71CFF374A4FF441701E21FFF716FF40F20630294601AAFFF710FF57
:201FCC000620A02104F080F90720A02104F07CF90820A02104F078F90920A02104F074F9B7
:201FEC002A4804F0B5FE2A482A4901F051FF0BA805F076FB8DF834408DF82C4020460BA979
:20200C0004F0E2FA244D286080B3284602F060FF284603F07DF90FA805F0F4FA8DF83C4087
:20202C001E4813908DF848400FA98DF85440204604F042FB01461A480160FDF7F9FF02A876
:20204C0021462422082305F09DFD16480168224602AB4FF47A70B0FBF1F1484307901349F9
:20206C001148ADF8182005F089FD00E0FEE717B030BDC046211F0020FC1E0020A81E0020A4
:20208C00541E002034080020450800206C0800206C1E002064080020AC1E002080841E0003
:2020AC00B01E0020A07F0000D81C0020596A00002DE9F04306467468B7680D46ADF1340D6E
:2020CC0005F090FD94F8D910012903D105F086FD002085E04FF0010984F8D99005F07EFD64
:2020EC004FF00008C4F888802869206168696061287E2076287B207328782070686884F837
:20210C00A480606068694146092800D3494684F88C10387B00F0DAFF304602F091FFF87EE2
:20212C0084F88D003046FFF7CFFC50B9387B00F063FF05F057FD84F8D98005F04FFD404660
:20214C004EE001A841463022082305F02BFD06967879CDF80080244A0990397901AB04F14F
:20216C001C0005F01BFD01A841462822082305F011FD05961D49B86801AA4346079004F1A1
:20218C00380005F003FD207880B901A841462422082305F00FFD8DF81C9004F16C0041467A
:2021AC0001AA05F003FD1248A06001E0A868A06002F0D6FCC4F8A000207B012808D1D4F89F
:2021CC009C000C4905F064FBD4F89C0000B18660094A04F1C4003346042104F043FD30465B
:2021EC000DB0BDE8F083C046ED36000011570000BB790000ED5F00001579000070B5ADF19C
:20220C00380D00F025F9354908682822082340F00200086001A8002105F0BCFC304EB07845
:20222C00304907903E48002301AA05F0AFFC00213022082301A805F0B5FC0025ADF81C506B
:20224C002A4A3078192101AB09902748009505F0A5FC2822082301A8294605F09BFCF078BC
:20226C0024490790224801AA2B4605F08FFC3022082301A8294605F095FC0124ADF81C4007
:20228C001E4A70781A2101AB09901B48009505F085FC1B481B492A46134605F06FFC21489B
:2022AC0005F0BAFA03F018FB2E46012800D126461548067015484FF6FF71018314490C7047
:2022CC0080F8215013480570134805701648057016480570114805700EB070BD00200940A1
:2022EC00967F000059750000E01D0020ED6D0000801C002031360000FC1D0020C555000002
:20230C00FC1C00208D7200001D1F0020201D00200E1F0020131F0020101F0020151F00207F
:20232C004C1C0020713200000F1F0020141F00202DE9F84305F092F8DFF800813E4EDFF83A
:20234C0000910546A80821D330464468F4B100214160226AA1692940114341F0020121625E
:20236C00414601F10803A7691A68BA431A6004F118020CCA0A680C301B1C9A430A6021464C
:20238C0003F088FE4846022105F0F8F87468A80815D204F1180090E80C0000210B4002EAC6
:2023AC000500002B00D1002809D0B460206A15404FF4804105434846256205F0DFF8214D81
:2023CC002868002836D1304605F028FB041C31D01D48E1680068884227D1A06803F098F820
:2023EC001A490860E8B9414601F10802A06913681843106004F1180090E80C000A68181C5C
:20240C001043086000200861A06841F80C0C01F1100000680028FAD0304605F043F82C6085
:20242C0008E0086802F0CEFB04E048464FF4805105F0A4F8BDE8F883181E00200C10044090
:20244C004C1C00201C1E0020E01E0020B41E00202DE9F041434C94F8E700ADF1280D00283A
:20246C006CD1384F387B01250021242284F8E750082384F8E60001A805F084FB002604F1D4
:20248C000C00069601ABADF814602F490796324605F074FB2D4904F1300001AB324605F01E
:2024AC006DFB2B4904F1540001AB324605F066FBB868014628468847DFF89C8025487B7B77
:2024CC000078D8F80410C1F381571BB1032F03D184F8E150032F16D0022F14D0012F26D135
:2024EC0003201E4C009031464FF040521C23204603F05EFA009531464FF400720923204628
:20250C0003F056FA13E0022004F0BEF8032F0CBF4FF47A7142F21071114800685434B1FBD8
:20252C00F0F1204605F066FB204605F05FFBD8F80000C00802D2304604F0A6F80AB0BDE86A
:20254C00F081C046407F0000574300002D3F000061420000161F0020B03F005000A00C4010
:20256C00A07F000020050020F0B50746880FADF1140D71D3394E00253560394846F81C0C37
:20258C003848007810B1012004F06CFE364805F043F9364840F60A0101804580027B02F0D4
:2025AC00F00202734560427B02F0F00242F001024273BC68658000E06468636813B11A8892
:2025CC009142F9D102466260607B00F0F0006073274805F023FA80680088C91F814219D035
:2025EC00491C814216D0388BB0B107F118014D8028464860087B00F0F0000873487B00F018
:20260C00F00040F0010048735160507B00F0F000507301E017480560B868694604F0EAFC65
:20262C00684605F07DF8B86800F007FC30680028FCD03560012004F0B3FD012808D0607BA1
:20264C0000F0F00040F0010060730B4805F0E4F80A48B9681C38016005B0F0BD1C1004406C
:20266C0001010E041D1F0020BD0900002C1E0020181E0020D41E0020715500001C10044010
:20268C002DE9F041334D0646287800285FD03249B1F91200B1F91010884206D0B6F98C1038
:2026AC0037A20CCA304600F05FFF05F09BFA01463248DFF8C0800778002F37D07F1EFFB236
:2026CC00002F077032D1084605F088FA2348002400782C7040B1204602F074FA06F13000FF
:2026EC004FF0FF3105F046FA06F1300005F03EFA06F1680005F036FA194805F02FFA194872
:20270C0005F028FA184805F029FA184805F022FA174805F027FA4046046017480470307CCF
:20272C00012814D10E2000F067FC10E0084605F055FA404601688E4201D10021016006F172
:20274C00300005F013FA06F1680005F00BFABDE8F081C046A5090020181E0020111F002052
:20276C004C1C0020E01D0020801C0020FC1D0020FC1C0020E01E0020A40900201F1F002032
:20278C0002000000000000702DE9F0410446DFF8DCC0DFF8D480A1780025081C3ED0DFF845
:2027AC00C4E0801E1BD0401E012834D86778002F47D103290FD029480788294837B1067845
:2027CC002EB17046394603F035FE00E0057003214046017038E002214046017034E067781E
:2027EC00002F2ED1E7785FB940460078022810D0704604F0A5FF60B9012004F083FE08E03B
:20280C001B4960461B4B0A780078294603F088F860706078A8B9012D16D01DE0677887B927
:20282C00E41C154821680160A188818001214046124A134B017060461278007803F070F845
:20284C0010B10421404601700E48006820B1016811B1404600788847BDE8F08100070020CB
:20286C00FE060020441D00201C1F0020201F00202207002023070020841E0020020700206F
:20288C0003070020480700202DE9FC4191EA03084CBF4FF000484FF000084FEAC32545EA91
:2028AC0052554FEAC2264FEA43077F0D11BF45F0004500210020BDE8FC815FF4E06E1EF1D8
:2028CC00FF0E774555D04FEAC12343EA50534FEAC0224FEA4104640D11BF43F000430021A0
:2028EC000020BDE8FC81744543D0E419A3FB0501A3FB06E7A2FB06631EEB030E57F1000723
:20290C0051F10001A2FB05631EEB060E57F1000751F10001FF1851F10001C01951F100013E
:20292C004CBF4FF4806E4FF4007E10EB0E0051F1000148BF641C01D4400049415FF4407712
:20294C00FF37E41BDEBF00210020BDE8FC8117F58067BC420DD24FEAD02040EA41504FEA49
:20296C0041014FEA113141EA045141EA0801BDE8FC810020FF21C900C91D090551EA080177
:20298C00BDE8FC812DE9F04104466668A7680D46ADF1380D05F026F996F8DC10012903D1D9
:2029AC0005F01CF900205EE04FF0010886F8DC8005F014F9E968204602F06EF80028F1D186
:2029CC002878307068687060287A002130220823F06001A805F0E6F806943A7B09920025F0
:2029EC000095224AB96806F1100001AB05F0D6F801A828220823294605F0CCF839690791B3
:202A0C001B49059406F12C0001AA2B4605F0BEF801A824220823294605F0CCF806F160002A
:202A2C008DF81C80414601AA05F0C0F8307838B906F17C00294601AA05F0B8F80D4870609A
:202A4C003572C6F8BC50C6F8C050786800F03EFB204602F089FF084A06F1C80004212346A3
:202A6C0004F000F920460EB0BDE8F081892A0000BB510000AB7900005D77000098B53A499C
:202A8C00826844680968106849688847374B01229A6160B1217AFF2909D0FF2140092172E2
:202AAC005CD204201860022004F08BFF56E0207A002853D0401E1DD0401E02D0FD3851D0B4
:202ACC0049E05968D4F8B4000170D4F8B800D4F8B410401E491CC4F8B800D4F8B870C4F814
:202AEC00B41017B3012F88BF092202201A6004F068FF98BDD4F8B000401EC4F8B000D4F83C
:202B0C00B070A7B9D4F8B8707FB10220D4F8A8102072097C012F4FEA410141F0010143F82F
:202B2C00041C94BF03220B22E0E7042210E0D4F8AC0000785860D4F8AC00022F00F10100A4
:202B4C00C4F8AC00D1D2D4F8B870002FCDD1052200202072C9E7FF20207298BD04F12C00ED
:202B6C0004F0F4FF98BDC046AC010010042800402DE9F04FADF1140D02F056F8384D2F4F87
:202B8C00364EDFF8CCB0DFF8D0A02D4C4FF00409A8464FF0FF3004F0FDF9C0B900200190D6
:202BAC00694601AA0DF1020003F0A8FB78B9BDF80200102807D138789DF80010884202D12F
:202BCC00019804F095FE019808B104F093F920784008DED3207800F0FE0020701948007877
:202BEC000028D6D0184800788DF808001748007859468DF809000A680DF10A0002608988A5
:202C0C008180144800788DF810009AF800008DF81100387802A904F005FE0028B9D0D8F843
:202C2C00000086F800900028B3D0286800680028AFD02868016830788847AAE7201F0020D0
:202C4C00FC060020FE060020191F0020181F002042070020171F00201A1F00201C1F002000
:202C6C00480700202DE9F84307467C68BE6804F0B9FFD4F88810002961D004F0AFFF31688C
:202C8C00486820F0020048603168486A20F003004862706931690843D4F8A010496809685A
:202CAC00C1F804053168486920F001004861306801250562384603F0D5FDD4F88800D0F8BE
:202CCC00048004F08FFF814694F8D80058B118F0704F02D1042003F0BFFC022003F0BCFC75
:202CEC00002084F8D800484604F078FFD4F88800017C042901D00321017431697069084335
:202D0C008540D4F8A00040680068C5623068B0F1804F01D10C4800E00C488068D4F8881091
:202D2C0082040868A0EB9250401E08600020D4F88810A268C4F888003846904701E004F062
:202D4C004DFFBDE8F883C04630040020000500202DE9F0430546ADF11C0D04F0F3FE03F049
:202D6C000BFA4FF000090746CDF8009004F0D2FD4C4630F0010000D017B96FF0040059E0A6
:202D8C00686860B1B0F1FF3F05D001A903F04CFC061C06D04DE04FF0FF30019001E0CDF8E3
:202DAC00049004F0CBFE0199012601EB000800E001937868019904F0DDFE00282ED003A873
:202DCC0003F06BFBD8B99DF8100002A903F08EFD88B9AB68BDF808009DF81210059A9847E9
:202DEC0048B1BDF80800A8819DF81200A87305984E46286112E00599684603F035FB019872
:202E0C00641CB0F1FF3FD4D00028D2D004F096FEB8EB000302D001989842C9D2009907F13A
:202E2C00080003F054FE24B1786804F083FE641EFAD1304607B0BDE8F0837047F8B546686B
:202E4C008568088896F88C2090402A6880B2B2F1804F01D12C4C00E02C4C8F68DFF8B0C0C9
:202E6C0047B996F88C205CF82220A26006F1A602626009E096F88C20264B53F82220A260F0
:202E8C008A688218521E62602A68083222600A68A7681301103B43F6F07213403B43A360CB
:202EAC002B68B3F1804F01D11B4C00E01B4C4F6847B996F88C005CF82000A06005F10E0037
:202ECC00206009E096F88C30154F57F82330A3604B68C018401E20602868083060600868C9
:202EEC00000110380240A0680243A260296968690843D6F8A0104968096888622968486A71
:202F0C0040F003004862F8BD3004002000050020FC7C0000F47C0000400400201005002019
:202F2C00EC7C000038B50C4601460025A0F540700A2807D8DFE800F0413B37332C25211DF0
:202F4C0017130FC0282901DB022539E0084602F0CFFF208034E01B480078207030E01A4860
:202F6C00007820702CE01948016821608088A08026E017480078207022E0164800782070E9
:202F8C001EE0154A15491278204600F09BFE17E0154A16491278204600F094FE10E014487E
:202FAC00008820800CE013480078207008E00C48016821608088A08002E00A480078207004
:202FCC00284638BD1A1F0020171F002042070020181F0020191F0020220700202307002028
:202FEC00841E00201B1F0020020700200307002000070020FE0600202DE9F843044604F07C
:20300C00F1FD81462D48021992F8ED10491ECFB2002F82F8ED704BD12B4D05EB84052E7837
:20302C00698836F07F0788461AD1F10911D24FF08054D4F8B801806901464046884704F53B
:20304C00DC742068406B0146404688470228F8D121E000EB8800D0F80011002088471AE01C
:20306C004FF08054D4F8B801006A014640468847D4F8B801806A014640468847D4F8B80116
:20308C00006B01464046884701210D4A0D48116001688908FCD306F03F003F2801D0FFF7B2
:2030AC00ABFF687800F03F003F2801D0FFF7A4FF484604F093FDBDE8F883C04620050020FD
:2030CC002820086028200840047D00002DE9F041064604F087FD2D4D8046A91991F8ED00A0
:2030EC00421C002881F8ED204AD1294C04EB8604277807F03F003F2801D0FFF7E7FF6078EE
:20310C0000F03F003F2801D0FFF7E0FF668837F07F001AD1F80911D24FF08054D4F8B8016C
:20312C00406901463046884704F5DC742068406B0146304688470128F8D121E005EB8605D8
:20314C00D5F80011012088471AE04FF08054D4F8B801C069014630468847D4F8B801406A1F
:20316C00014630468847D4F8B801C06A0146304688470121074A0848116001688908FCD37F
:20318C00404604F02BFDBDE8F081C04620050020047D000028200860282008402DE9F04712
:2031AC000E46074630687C68D7F8088008B9002054E004F017FDD4F8881029B104F00EFD35
:2031CC0003203074002049E001253574C4F8886004F004FD94F8A40038B194F88D202049B0
:2031EC00D4F89C00114302F0FFFFD6F804A004F0F9FC814694F8D80050B91AF0704F02D1EC
:20320C00042003F041FA022003F03EFA84F8D850484604F0E3FCD8F80010486840F002003C
:20322C00486038463146FFF709FED8F80010486940F001004861207830B9616804F16C06CC
:20324C00304604F097FC08B1284607E03846FFF709FD3046002104F08DFC0020BDE8F0878D
:20326C0000000680042998B546D1244804F0D6FB244C38B9224991F82100400804D34868B5
:20328C00206001E0C0682060206841681E4A0978116040681168007888422CD1022003F019
:2032AC00F3F91120FFF712FF1849012008702068007C18B116480078012802D00E20FFF722
:2032CC0005FF206841688F6812480FB9CF681FB10021C16110490160104A40F2FF71116023
:2032EC00002181610E4941610E4804F095FA192004F01CFC00E0FEE798BDC046181E002032
:20330C00201D0020E01E0020D0210840101F0020131F002000100440510007060000046036
:20332C0002000040BD4D00002DE9F8430D46064668687468D6F80890002710B9E8680028CB
:20334C0050D02078012814D104F04CFCD4F8BC1049B1D4F8C0108D61C4F8C05004F03EFC49
:20336C000120BDE8F883C4F8BC50C4F8C05004F035FC022003F088F904F160084FF0FF31E5
:20338C00404604F0F7FBD9F8080004F0CBFB3046294600F00DFE0546D9F8080004F0C6FB69
:2033AC00207888B9B5F1FF3F08D004F17C004FF0FF3104F0DFFB207A48B110E00320207286
:2033CC00022003F049F90AE0B5F1FF3F01D0012705E00320207204F12C0004F0B7FB4046DC
:2033EC0004F0A8FB3846BDE8F88370472DE9F041DFF8AC80044698F800001F4616460D469D
:20340C00ADF1300D012804D0FEF7F8FE012088F800000DB165600EB900203DE0A66004F0BB
:20342C00E1FB204A117819B104F0D8FB002033E01178491C117004F0D1FB1FB9684604F044
:20344C0077F96F46386820607868E060387A00217822207404F1180000F03EFF03A80021F4
:20346C002422082304F0A6FB0120002103AA8DF8240004F1300004F099FB03A800212422E3
:20348C00082304F07FFB0849099404F16800002203AB04F073FB20460CB0BDE8F081C046CC
:2034AC00A50900201F1F0020E1790000F8B504F0DDF904F0F3F9044604F00C000C2845D090
:2034CC00E0081ED203F0D8FA234E376805460120014603F01DFE31686943884211D21F4C15
:2034EC008220B0FBF7F0291A204604F083FB204604F07CFB0120FDF705FC204603F0DAFD5A
:20350C0025E0200922D21648610939BF016821F00101016841F0010102460160D2F898009A
:20352C004FF0805440F00300C2F89800D4F8B8018069014620208847D4F8B801094C806B5E
:20354C002168804701202060206800E030BF04F093F901F0D5F9F8BDA07F00002C050020B3
:20356C008C2108402C200940F8B51F4616460C46054604F02BFB284AB2F91010091B0AD451
:20358C00B2F91210A14215DBB2F91210B2F9102091420ADD0EE0B2F91210A14205DAB2F9F5
:2035AC001210B2F91020914204DC04F00BFB022000212FE0A11004EB517121F00701641A0A
:2035CC00E10001EB4411154C641894F8241011F0070F16D1124A61688A4202D06168A96588
:2035EC00626005F1500181E8C00004F0EBFA05F130004FF0FF3104F0BDFA603595E803005F
:20360C0008E004F0DFFA94F8240010F0070FFAD102200021F8BDC046181E0020F0160020DE
:20362C00B15700002DE9F04104F0DCFA8046254D254C286810F4602F27D0400CC6B2700866
:20364C0007D2B00803D2F00804D3022602E0012600E00026771D78B201F0D8FF06F1110163
:20366C00012004F11C028840116881434046116004F0B4FA2046083050F8266046B1606841
:20368C0013A20CCA3946B04702E0404604F0A6FA286818B10D48002103F070FF94F8210043
:2036AC0080080CD367692FB160680BA20CCA6FF00101B8476D1D287800F0FD002870BDE8E8
:2036CC00F081C0463C1D0020201D0020801C0020000000000000000800000000000000804D
:2036EC0098B501468B681C68E2694868226252082DD2D0F8A01049680968D1F8042559698D
:20370C000A420BD01A68516A21F002015162D0F8A020526859691268C2F80415D0F8A010A9
:20372C0049680968D1F8042519690A4231D01A68516A21F001015162D0F8A02052681969D3
:20374C0012683830C2F8041504F000FA21E01C68626922F001026261D0F88870B7B91C68DE
:20376C00626822F0020262601C68626A22F003026262D0F8A0005A6940681C69006822434B
:20378C00C0F80425084603F06DF802E00846FFF769FA98BDF8B50D462908EEB201D32549A5
:2037AC004D40254B53F8261085EA01020240C2F30067224A00EA0504814322400A4300F4E9
:2037CC00E021B1F5E02F01D1510E14D300F4E0210F4310D002F4E027B7F5A02707D0B7F5F5
:2037EC00803708D122F4003242F4A02203E022F4803242F4C022C10D114C43F8262004D3A7
:20380C00A4F1E001C5F380528A55000E10D304F0E9F9290E02D30121B14000E00021103C8A
:20382C0023680122B24093431943216004F0D6F9F8BDC046006000A000100840007F077F4E
:20384C00E02002402DE9F84307462648006890460C46B84201D003203FE0234D284601F0A2
:20386C00EFFF061C38D404F0BDF9814606F00F0044EA00241A48A4B224F0030108432860B5
:20388C0003F0A8FB00F0FF0001281DD1600B10D3164806F10C020121001F914002688A4386
:2038AC00026085F8206095F8210040F0040085F82100281D0835076005EB86050C4845F828
:2038CC00148C0121017004E0304601F09FFE6FF00106484604F082F93046BDE8F883C046C2
:2038EC0001000306E01E0020201D00200C100440A4090020F8B50F4601468E684D684FF0D7
:20390C00FF34384620383CD0401E36D0401E31D1287B1778012802D11F49394301E01F4967
:20392C003943FF2F0BD195F88D10FF2903D0D5F89C0001F00DFA85F88D70002429E0D5F8FB
:20394C009C0000F075FF20BB3068B0F1804F01D10B2200E02322D5F89C00394603F034F84D
:20396C00D5F89C0095F88D1001F0F2F9002485F88D700EE06FF001040BE0002485F8A4406C
:20398C0007E0297B0020012900D1012085F8A40000242046F8BDC046002000800004C0A0EA
:2039AC0010B501460888401E46D0C01E2CD0001F27D0183843D103F089FF224C204968B924
:2039CC0008460122052102F02BFC204603F072FB03F0D6FF002003F029FE0CE00846002207
:2039EC00052102F01DFC012003F020FE03F0C3FF204604F0FBF803F06FFF00B303F05AF9FC
:203A0C001DE003F0DBFB1AE003F03CFF02F06EF90D4C80B201126172A07203F00BFB02F0E5
:203A2C0065F980B201122246E1721E2120734FF44170FEF7D5F902E0887803F01FFE10BDD4
:203A4C006C1E0020D81C002045080020F0B520480127F84201D001F019FF204D204F214E9B
:203A6C00BD4206D203CD0478A4003459401CA047F6E71D48002800D08047164D164FBD42DB
:203A8C0002D210CDA047FAE7F0BD03251BE0416808300A1C2A400BD11A1C2A40AB4305D021
:203AAC00046804300C600431043BF9D1131C05D0047801300C700131013BF9D1021C2A40C3
:203ACC0001D0A84304300368002BE0D17047C046FFFFFFFF0000000000000000A8830000BF
:203AEC00308400002883000059C501101B4838B50468B4F1FF3F08BF002403F08DFD002500
:203B0C00174818490560012008601749086001F021FE1648006820B1154800682046FCF75E
:203B2C005FFD144814490560144C0A686FF35B4244EA0200086012490868C0F301300128BE
:203B4C0006D10A680F48104040F400320A6008600D4908680028FCD138BDC0461C130050FC
:203B6C00840460425C600C400822044380012843000120438C21084048200340000039016C
:203B8C0004000940FFFFFCFC0C006842F8B5001D002584B22E4614F0030002D0241A241D2F
:203BAC00A4B203F089FB1D4A102C106002DC1C48076801E01B4807683888C10BCB031ED16C
:203BCC0026B984420BDD01263D461CE02B883988C91889B28C42298015DC2F460846BFB17B
:203BEC00001B80B2042804DA388840F40040388003E0E05344F400443C803F1D08E080F470
:203C0C000040002680B2C71938880028D5D10027106803F0CBFC3846F8BDC0468C1E002036
:203C2C00BC1E0020C01E0020B0B50446A068ADF1280D40BB0C20FFF7A9FF071C02D16FF0DC
:203C4C00030036E0684600212422082303F09AFF0023ADF8103005931748069761686A465E
:203C6C0003F05CFF3860386838B903F07DFA384602F04AFA6FF003001BE0E068786020699D
:203C8C00B860A7600DE00D48A768006880470546386803F00FFA2069B860094801682846C9
:203CAC0088473868616803F0A5FF386803F09EFF00200AB0B0BDC0463D780000640900206A
:203CCC0068090020002A4AD05FEA000C8B071CD1830722D1102A08D370B4103A78C978C0B6
:203CEC00103AFBD270BC103238D0042A2CD3082A05D30C2A24BF08C908C008C908C008C9D8
:203D0C0008C092072AD0920F22E00B780370491C401C521E22D08B07F7D1C30714D18307ED
:203D2C00D8D0121F12D308C903801B0C4380001D121FF8D20AE008C903701B0A43701B0A38
:203D4C0083701B0AC370001D121FF4D2121D05D00B780370491C401C521EF9D160467047A6
:203D6C00F8B5064603F03EFF012407461F491E481F4D0470B1F91000B6F98C20801A11D45A
:203D8C00B1F91200B6F98C10884217D106F1680003F090F9002000F015FF2C70384603F052
:203DAC001DFF1FE0B1F91200B6F98C2090420EDAB1F91200B1F91010884208DD0D4986F802
:203DCC008E4000200870384603F008FF0AE006F1680003F06FF9002000F0F4FE2C70384639
:203DEC0003F0FCFEF8BDC0460E1F0020181E0020141F0020A40900202DE9F8432020EFF3D9
:203E0C00118780F31188214CA068012103F082FE4FF001094FF0000865692168A4F81C90B9
:203E2C006A1A2168A4F81E80461B401A904227D387F3118840464519361A4846294603F071
:203E4C0065FEB042F7D92021EFF3118781F31188E18B012903D14046294603F057FEB0F121
:203E6C00FF3F06D0A169801B814238BF081C411901E0A069291803F045FEA4F82090256013
:203E8C00A4F81C8087F31188BDE8F883780100202DE9F843DFF878900D4606464FF0FF31D4
:203EAC00484603F067FEDFF870801A4A0024012708E0FF2805D01168814222D958F82030DE
:203ECC00FBB9641C1DB115F82400FE28F1D1C7B1002434607460B460A5B155F82420D0B23A
:203EEC00FE280FD0FF280AD048F82060716807FA00F0084309497060304602F067FA641C70
:203F0C00EAE70026484603F015FE3046BDE8F883C41D0020A01E0020B41A0020007FC767FA
:203F2C002DE9984303F05EFE1F4CDFF87880814604F1E000007850B94446A06801460220E3
:203F4C0088470746102001F07BFD2FB320E000F0EDFF002820460FD1144909683222B2FBA5
:203F6C00F1F101B9012100F13004204603F042FE204603F03BFE0FE044460022A16880F80B
:203F8C00E020022088470746102001F059FD1FB1A068014603208847484603F01FFEBDE80C
:203FAC009883C046407F000020050020A07F000080B54268C2F8A8100868C2F8AC004868DA
:203FCC00C2F8B000D2F8B0708868C2F8B400C8681949C2F8B80097B9D2F8A800007C4000A1
:203FEC0040F0010041F8040C022010720B68DB0917D2D2F8B820022A17D30B2216E0D2F8B2
:20400C00A800007C0123400041F8040CD2F8AC001372431CC2F8AC30007848600868C0097A
:20402C0002D34FF0FF3080BD022003220A6003F0C8FC002080BDC0460428004070B51F4C2D
:20404C00A568064603F0FEF94FF47A71401B4843050C02F07BFD2169401A48BF404240F6DF
:20406C00B831AD19A94211D306280FDAA268E1688A420BD8206848B1891A114A51438A0CF4
:20408C0002EB1141884288BF011C08E00D49486840080ED208687D2100F0FF004143C8291F
:2040AC0005D3B1F57A6F88BF4FF47A6103E0C82101E04FF4FA61084670BDC046401E0020DE
:2040CC0040420F00AC3F00502DE9F04FADF13C0D03F080FDDFF86490194F1A4E1A4D002436
:2040EC008246684600213C22082303F007FDA00059F800100691395808913158049128583D
:20410C00059012480022694603F0F4FC5FEA00080FD003F0D1F88346404600F08FF940B14C
:20412C00584603F043FA641CDBD0504603F046FD01E001F0BBFD0FB0BDE8F08FF87E0000CB
:20414C00FC7E0000F47E0000600900201D77000070B5054601201D4E1D4C68712879C8B9EA
:20416C0003F0AAF8317821B903F020FA6FF007002AE032461178491EC9B2117039B903F055
:20418C0015FA206802F040FB002068711BE003F00DFA18E003F090F805463078FF2805D1FE
:2041AC00284603F003FA6FF006000DE031460878401CC0B20128087002D1206802F03BFB5A
:2041CC00284603F0F3F9002070BDC0467C0900208009002070B50C461C490968814201D004
:2041EC0003202EE01A4991F82100C2080AD391F82020A24206D100F0FB0081F821000020A5
:20420C0081F8200003F0EEFC0646204601F0FEF90C48210201F47F41084302F0DBFE0A4AEC
:20422C0011680C3405460120A04081433046116003F0D4FC05F0FF05012D01D1812000E085
:20424C00022070BD0100080408100440E01E0020201D00201CB5042002F0A2FF022818D085
:20426C00032816D016480068C0F38150032814BF41F288324FF47A721248144C0168543412
:20428C002046B2FBF1F103F0B5FC204603F0AEFC1CBD03200C4C009000214FF040521C2361
:2042AC00204601F085FB012000214FF4007209230090204601F07CFB022002F0CDF91CBDE7
:2042CC00B43F0050A07F000000A00C4020050020002213460A46194671B510F0030F0BD002
:2042EC00002A82BF00F8011BB2F1010210F0030FF6D1002A08BF71BD11F0FF0141EA012147
:20430C00042A18D341EA0141082A0FD30E46102A08D30C460D46B2F10F0312F00F0272C0EF
:20432C00103BFCD812F0080F18BF42C012F0040F18BF40F8041B12F0020F18BF20F8021BFE
:20434C0012F0010F18BF017071BD704770B51649184A1748184C091D21F003011160134B5F
:20436C002160401A1860002001E021F8020B1D681668AE198E42F8D82168AA1001EB82029A
:20438C0022F8040C2268E823E83113804FF6FC722A40EC3A0A80094D2960FFF7F7FB0849C1
:2043AC0008602068286070BD221F0020EC140020F8410020C81E0020C41E0020BC1E002070
:2043CC00C01E002070B50646B079F4680628A4F10C0402DA3079062802DB6FF002002AE00F
:2043EC0002F06AFFB279144D910001EBC20169184968E1B103F0DAF830792071B0796071CD
:20440C00307AA071B179880000EBC1002818F1684068083002F028F8B179880000EBC1008E
:20442C002D186868406803F085FB002003E003F0BDF86FF0020070BDD01B00202DE9F843AB
:20444C00064602F039FFDFF8648000252F468146A80000EBC50008EB0004206880B9384630
:20446C0026600146A7600A4603F040FB6060606820B1484603F09AF8204615E001F016FC14
:20448C00A80000EBC50008EB00042068B04204D1484603F08BF8204606E06D1C032DD7D3BF
:2044AC00484603F083F83846BDE8F883B41C002038B519491A4C00204822C1F8F30F94F8E0
:2044CC00E200C1F8FF2F20B3012817D0022807D003281ED151F8310C00F024F80B2016E056
:2044EC0051F8315C2846FDF721F940F2FF50A84202D8801CA842F1D2082008E051F8310C3A
:20450C0000F086FC054800780028E7D0052084F8E400FDF7A5FB38BD39400C404E7F0000D9
:20452C002005002038B51A4CA0F5C060D4F8B810C4F8D4000029B8BF49420028B8BF4042B2
:20454C00814220DAB4F8BC00124D30214FF47F4208230090284601F02BFAB4F8C0000421A6
:20456C004FF4F80212230090284601F021FAB4F8D00020214FF440620A230090284601F0F5
:20458C0017FA012000E0002084F8D80038BDC0462005002000A00C4038B50546880F26D395
:2045AC0001F0E2FC124803F037F912480078012803D005F1300003F0BDFA0F480024046026
:2045CC00022002F049F81120FEF716FD287C10B90E20FEF711FD09480470094809490470C7
:2045EC00087820B108480C70042102F0C7FF38BD71320000A5090020000004600F1F00209D
:20460C00141F0020121F00204C1C00201A4898B5D0F8781203680F0F03F0FF03802B28BF51
:20462C00002301F059F94FF0FF3478B1401E07D0401E012802D9801E19D01AE0BFB118E0ED
:20464C00381C12D0801E14D1143311E03846401E0BD0801E07D0001F03D0401E09D11633BE
:20466C0006E0152405E0142403E00A2401E00A335CB2204698BDC046A0100050F8B50446FD
:20468C0003F060FAFFF7DAFE071C02D16FF0020029E002F011FE034613480022910001EB4F
:2046AC00C20141180E8866B9A08808804F60A0688860227378682061184602F077FF0020F2
:2046CC0011E0A588910001EBC201415AA94205D1184602F06BFF6FF0020004E0521C062A77
:2046EC00DCD301F0E3FAF8BDD01B002038B505461748184C2830241F01686068C1F30342B1
:20470C00C1F30353400812D22068040513EB247303D4102BA8BF0F2300E00023000412EB82
:20472C00207203D4102AA8BF0F2200E0002242EA031201F47F4001F0FF03222D40EA02428B
:20474C0043EA020024BF01F08041084338BDC04650130050B03F005030B5401E4FF00004CB
:20476C00ADF12C0D0AD0401E04D0401E21D1FDF777FA1EE000F074FD04461AE001A82146E2
:20478C002422082303F0FEF906940D4DADF8144009490794012201ABE63D05F1780003F085
:2047AC00EDF923462C2105F19C00044A009303F0F5F920460BB030BD954F0000BD4400000A
:2047CC00060600202DE9F041054615F8017B90460E461CE0B8F1000F05F101050BD0FF2CA6
:2047EC0009D8022015F8011B401E41EA0424F9D101E0042C02D315F8011B00E03946304622
:20480C002246FFF769FDA61901E006F8010B15F8010B8742F9D115F8014B002CE9D115F826
:20482C00010B2C7800022418D4D1BDE8F0817047B0B5071C0C4604D015480068E1B288423C
:20484C0001D802201EE0104D4FF0FF31284603F091F91049E0B201EB8001086868B90F6044
:20486C000120E1B2884079682246084307497860384601F0ABFD002400E00124284603F053
:20488C0059F92046B0BDC046C41D0020007FC767A01E0020B41A002010B503F0A3F91349B7
:2048AC00097829B10F490C6803F098F9204617E003F094F902F09CFE0FA20CCA02F03AFE27
:2048CC00094A126800231B184FEA020408A044EB010490E80600C91842EB04021046001C8A
:2048EC0010BDC046043004403C1E0020111F0020000000127A00000000093D0000000000C5
:20490C00164880B507683FB315498B6803EA5300C00E21D2134A106880081DD248688008C1
:20492C001AD21068096810F0050F4FEA114101F0F00101F5E0710AD1B9420DD2190F38BFFA
:20494C0040F00100D90E38BF40F0040003E0B94202D920F00500106080BDC04628500940C6
:20496C00AC3F0050000009401449F0B50B220026134D0A70ADF1140D124C487003208E7082
:20498C0032460090284601910621029401F048FC0D480068694602F0F8FF07460621012225
:2049AC00284601F03DFC0FB1A07804E007490888401C0880304605B0F0BDC046041F0020B2
:2049CC00601E0020F01E0020B81E0020A60900200146174880B500688A0CC0F38367C0F311
:2049EC008F2022D241F3072100290BD54A420021400805D17F0806BF0127381C4FF6FF705C
:204A0C00521EF5D1002910DD4FF6FF72400040F00100824207D2780040F001070F2F92BF3B
:204A2C0001200F27101C491EF0D140EA074080BD5013005070B544688668D4F8A40002F03D
:204A4C0058FB13480025C5600560124805607068FEF7D2FA04F1100003F07CF804F12C0008
:204A6C0003F07CF804F1600003F080F8207818B904F17C0003F07AF804F1C80002F0CAFA51
:204A8C0003F0B0F884F8DC5003F0A8F870BDC04604280040100405427FB5446819B98068A0
:204AAC00067D457D01E00E784D78FF2E1FD0FF2D1DD0114941EA06000090FE220292294309
:204ACC0004F1980001916946FFF7E2F9C4F8A400D4F8A40058B131460D2201F075FFD4F87B
:204AEC00A40029460E2201F06FFF002001E04FF0FF3000907FBDC04600200084F8B50C4624
:204B0C00144909681F46814201D0032021E00A2121806260104D686028462C6000F090FE73
:204B2C00061C15D4A670204601F096FA02280AD0012808D00948083505EB860545F8147C86
:204B4C000121017004E0304600F060FD6FF001063046F8BDE01E0020201D0020A409002036
:204B6C0030B5164C60680079ADF1340DFEF7AEFA03F038F8054620680078C0B901A8002174
:204B8C003022082303F00EF80694616888790C4A0990002000902068497901AB001D02F08B
:204BAC00FDFF206801210170204602F04DFB284603F014F820460DB030BDC046207F000010
:204BCC00A1790000F8B5074603F00CF8114906460878D8B1401EC0B20870B8B90E480821D7
:204BEC0002F0CCFC97B10D4C2068683002F062FA2168C9687F1A0B49094D09682846B7FB52
:204C0C00F1F102F0F7FF284602F0F0FF304602F0E5FFF8BD1E1F00204C1C0020E01E00206B
:204C2C00FC1C0020A07F00003EB50E480E4901F089FE1048002501242A460D4905702B46AB
:204C4C0000920A48019400F00FFC0B4804700B48032101700A4805700A48072101700A4821
:204C6C0005703EBD201F0020F81E0020441D0020117500001C1F00201B1F0020191F00200F
:204C8C00181F0020171F00201A1F00202DE9F8438146EFF31188202080F311880125114E9E
:204CAC00114CF561114F6560F86A016A14208847D9F81000810C14BF000C0420A06138682E
:204CCC000268232100209047C6F88052206820F4C02040F480302060356088F31188BDE865
:204CEC00F883C046000024430020094084010010F8B5044602F00EFE30F0010002D16FF07A
:204D0C00040022E002F01EFF054602F0D5FA0F4E00239A00314602EBC30289180F8887B1B3
:204D2C00A288BA420AD14968096800228D4200D10122A26002F03AFC002006E05B1C062B87
:204D4C00E7D302F033FC4FF0FF30F8BDD01B002038B50C4620B142680121A140114201D15C
:204D6C0002201BE08A4342601048002540F824500B48015D0C48FF2906D00A4A126852F857
:204D8C002110FEF707FD03E044F02041FEF702FD20464FF0FF3102F01FFA284638BDC04628
:204DAC00681D0020E81E0020007FC767B41A002010B50446880F22D36068406800B18047FE
:204DCC006168886808B9C86888B10D4908680028FCD0002008606068806800B180476068B2
:204DEC00C06800B180470848503802F0F3F8054802F012FD05484FF0005102F0BFFB10BDAE
:204E0C001C10044075250000510007064C1C0020134910B50A684BF2F5214843040AC2F362
:204E2C008140012806D101F091FE01F0BBF8604304EB90540C4901F1E500007830B909482D
:204E4C00006820F07F402418640802E0002081F8E50006480460210C41600123836010BDB3
:204E6C00B43F005010200940200500203C600C40124A30B50A231370ADF1140D114D50706F
:204E8C0003209170062100900D48019200220290284601F0C5F90C480068694602F075FDA3
:204EAC00044606210122284601F0BAF91CB907490888401C088005B030BDC046041F0020BC
:204ECC00F01E0020601E0020B81E0020A609002010B510490068104C086010492046FEF737
:204EEC00D7FF0F49204602F0D3FC0E49204601F07BF901204FF4484101F05AF902204FF499
:204F0C00404101F055F9012000F024FE0649088010BDC046CC1E0020781E0020807F000029
:204F2C0009790000020007800C1F002008B5012002F036F901281DD00F4834210122002308
:204F4C0000F038FF002808BF002014D00B48006801F09CFE02F076FA0A4A93681168D0608B
:204F6C00C01A074BA1EB91014343180C884228BF011C1160012008BD00A00C408000001090
:204F8C0040420F00401E00201548134A1349E4300078801E0A281CD8DFE800F018130E1B85
:204FAC00130E1B130E1B06C010688008FCD250688008FCD2FCF754BE08688008FCD3FCF70C
:204FCC004FBE08688008FCD2FCF74ABE10688008FCD3FCF745BEC04634600C4038600C4068
:204FEC0020050020F8B516460C4602F0FBFD832564B1641E02D0641E13D010E00C490978DF
:20500C00012906D00B49098831800DE00A490F680FB9802508E00968098A318004E0032521
:20502C0002E006490978317002F0D8FD2846F8BD0E1F0020381D00201C1E0020111F0020BB
:20504C007FB5866831684568486820F0020048603168486920F00F00486130680321016241
:20506C0002A802F03FFD0C4800680468286900906869074A0190297E064B52F82120297B29
:20508C00306853F821300399A04700907FBDC046D47C0000CC7C0000C4010010B0B5154C48
:2050AC00241D20680004070C21D001F04FFD104991F90720824205DD10F1800FB8BF6FF0C0
:2050CC007F00C8718D88BD4210D80A68D4F8D40F801A801C1F2888BF1F207F1B4008C74003
:2050EC004FF6FF70EF19B84238BF071C8F80B0BD981E0020301009401549096821280ADCFB
:20510C00212819D00C380FD00D380FD0001F0FD0C01E0FD01AE0253810D0001F10D0401EBB
:20512C0010D0401E10D011E0086870474868704788687047C86870470869704748697047A8
:20514C0088697047C8697047086A704700207047F001002038B544688568D4F8A00001F0BF
:20516C00E0FCD4F89C0001F0C4FF2968486820F00200486004F11C0002F0ECFC04F1380018
:20518C0002F0ECFC287BFDF737FF207818B904F16C0002F0EBFC04F1C40001F03BFF02F0E3
:2051AC0021FD002184F8D91002F018FD38BD38B505466C68237AD4F8A810002203B9012215
:2051CC0063689847D4F8BC00D4F8C010814211D08069C4F8BC00D4F8BC102846FEF7E8FE0F
:2051EC00B0F1FF3F0ED10320207204F12C0002F0ADFC38BD0020C4F8A800C4F8BC00022061
:20520C0001F02AFA38BD70477CB50546A968686800240860142002F0D1FB4DF8240058B96C
:20522C00002534B15DF8250000F06EFF6D1CAC42F8D86FF003000EE0641CEBD0064E002437
:20524C00A10051F80D00AB68044A715801F00AFD641CF5D000207CBD9C7F00000566000005
:20526C0038B5134D95F8E100002410B91148007860B102F0B7FC95F8E310002906BF012163
:20528C0085F8E310012402F0A9FC0CB1002038BD022001F0F9F90E20FDF718FF01F08EFD4A
:2052AC0001280EBF0120002085F8E20038BDC046200500204E7F00007CB5FCF749FE134C75
:2052CC00002502F03BFC4FF0FF3001F073FE0028F7D101950DF10200694601AA01F028F8B3
:2052EC0018B9019808B101F035FE206802F0F6FB0028E6D1206802F013F8061CF5D0FEF7B0
:20530C004FFB304601F0D6FDEFE7C046A81E00202DE9F041124F0068124D38600121297079
:20532C00ADF1200D00958846CDF80480002402944826039469468DF8106002F008FB04206E
:20534C0028700095CDF80480029403948DF810603868694602F0FBFA08B0BDE8F081C0469F
:20536C00D01E0020081F002030B50D4612490870ADF11C0D0091012001900E4C029403952F
:20538C0048208DF810000D480068694602F0DFFA60B1012D01D1207809E0022D06D121789C
:2053AC00607840EA0120001180B200E0002007B030BDC046F41E0020081F0020D01E00204A
:2053CC00B0B5054602F0BEFB044602F0A3FA30F0010002D16FF0040019E001F06DFF0C4B89
:2053EC000022910001EBC20159180F885FB1496809688C4204D12A7102F0D8F8002006E0FF
:20540C00521C062AEDD302F0D1F86FF00400B0BDD01B0020F8B5044602F094FBFFF70EF818
:20542C00071C1CD001F048FF0E4D002203469100284601EBC201401806886EB94FF6F871EA
:20544C00018047600025856022717868A060184602F0ACF8284604E0521C062AE7D300F00D
:20546C0025FCF8BDD01B00202DE9F041884615461C46064606AF002124220823ADF1280D07
:20548C00684602F07FFB786806900B4800684FF47A716B46B1FBF0F0444305FB00F2397820
:2054AC0005943046ADF81010414602F067FB30460AB0BDE8F081C046A07F0000012838B5B0
:2054CC001ED1012001F06CFE01281BD001F0D2FF0D4D0E480122322305F1E00100680A709E
:2054EC00B3FBF0F404B914463035284601F0E2FD2846214602F07EFB284602F077FB01E061
:20550C0000F04AFF002038BD20050020A07F000010B50446207B00F00F00022819D10E48BA
:20552C000078012815D0FFF7B7F9A1688908A1EB90006FF0704181420BDDB0F1704F01DA87
:20554C000649081806490968C96801F57A71814200DB002010BDC046A4090020F6FFFF1F8D
:20556C00E01E002010B5012001F01AFE01280CD00C490B4C096832222046B2FBF1F102F0B5
:20558C0039FB204602F032FB09E0074802F044F9064907481C38016006480021016010BDEF
:2055AC00FC1C0020A07F0000BD0900002C1E00201C100440D41E002010B510480E4C0168F6
:2055CC000C40E1430160A10907D34068800904D30D484FF4005101F0D1FF14F4602F09D048
:2055EC000748016804F460240C4304600548002101F0C4FF10BDC04620000E000810044039
:20560C003C1D0020801C00204C1C0020B0B5044602F0E8FA114BA3F1180191F82120D20891
:20562C0003D391F82010A14210D01D88012202FA04F12943198007490B680C34A240934393
:20564C000B600F6817B9044A0021117002F0C6FAB0BDC0460C100440A4090020381D0020D5
:20566C0098B5044602F06EFA00F086FD074602F051F930F0010000D017B96FF0040017E016
:20568C00606858B1B0F1FF3F04D0694600F0CCFF30B10DE04FF0FF30009001E000200090B3
:2056AC007868009902F066FA002400B90124204698BDFEE72DE9F04180461C4615460E4653
:2056CC00182001F057FA071C16D00421002201F0C1FF5020414601F075FA38727E72BD7223
:2056EC00FC60069838610798786101F057FA044A394600F09FFB00E00420BDE8F081C046DA
:20570C00F37900002DE9F8438046D8F80440D4F8880000250574D4F88860776802F062FA13
:20572C00814694F8D80050B117F0704F02D1042000F092FF022000F08FFF84F8D850484621
:20574C0002F04CFAA268C4F88850404631469047BDE8F8830F4908680028FCD1104A131D2C
:20576C000D49186820F0030001430C480068C0080CD2106810F0030F0AD041F0030018607E
:20578C00106800F003000328FAD101E041F00101196070470C00684204000020B03F00503F
:2057AC00004003402DE998430446A76D9946904607B1B8470020022100EA090001EA080175
:2057CC00002800D100290BD104F1500090E8060009EA020008EA0101002800D1002907D01A
:2057EC0004F1600080E8000304F1300002F0A2F9BDE898837CB5114D04460E46600807D3FC
:20580C00B0B20021009001220B46284600F0D0F8A00807D3B0B20090002102220123284684
:20582C0000F0C6F8E00807D3B0B2009000210C220223284600F0BCF87CBDC04600A00C4049
:20584C000246114838B50078012818D000200123118B03FA00F50D420DD04FF6FF746C40C3
:20586C0021401183074A1946136800F10C04A1401943116005E0401C40B20F28E8DB6FF0C1
:20588C00010038BD0C1004400E1F0020F8B506460F4D104F7388002417E0A00000EBC40040
:2058AC00321851689068D26852B9AF420BD00A7855F822200346491C08461946904701E0AC
:2058CC00FEF700FA7388641CA4B2A342E5DCF8BD2883000034830000104A1068C0F30F317A
:2058EC004BF69A10884207D111680B20B0EB117F14BF0020042070472430884208BF01206C
:20590C000BD04BF64130884208BF032005D0213888420CBF02204FF0FF30704718130050B5
:20592C002DE9F04180461C4615460E46102001F021F9071C12D00421072201F08BFE5020C5
:20594C00414601F03FF938727E72BD72FC6001F025F9044A394600F06DFA00E00420BDE88A
:20596C00F081C046117A00003EB545688468684602F0B8F80B480A4BE968026853F821105E
:20598C0020681368002201B1012201999847064901208861054A10600860C8603EBDC046DF
:2059AC00887E0000AC0100100428004010040542B0B500EB4100102B04AF00F5007403D393
:2059CC00103B00F50174120C3D889D4045EA024501F04CFF002700B90127064A3946106845
:2059EC000028FCD025600120106009B101F044FFB0BDC04600800C40F0B505AF0446ADF123
:205A0C000C0D03B9094B97E860008DE86000FBF795FC002802D506A003C805E006A20CCA47
:205A2C0001462046FDF7A0FD03B0F0BDB157000000000000000000800200000000000070C2
:205A4C0070B5104C0646204601F090FF0025B0B9204601F0DFFF0446A06806420AD0E06808
:205A6C00226900210346304698470546012D08BF012005D0204601F0CFFF041CECD128462A
:205A8C0070BDC046200500200F4A01461068ADF1080D08B9002010600846801E12D0801EFA
:205AAC0010D0401E07D001208DF801009DF801000028FBD106E001208DF800009DF8000073
:205ACC000028FBD102B070473008002070B50546686810F07F4F02D06FF0020012E001F0E1
:205AEC00EBFB06460948084C007828B1206800F08BFE686800F09FFE68682060304601F05D
:205B0C0055FD002070BDC046800900207C090020B0B505463C20FEF739F8041C17D004D079
:205B2C0000213C22082301F0E9FF287AA06168892062E868206168682146002201F0DAFFCC
:205B4C000746204600F0E0FA0FB1002001E06FF00300B0BD10B50E490870ADF1200D00913C
:205B6C0001200190094C02940220039044208DF8100008480068694601F0E9FE217860781E
:205B8C0040EA012080B208B010BDC046EC1E0020001F0020CC1E002001460C4810B550F8D6
:205BAC0021200B4810400C4A503A1268012303FA01F40843144201D040F480008B40054946
:205BCC0009680B4201D040F4000010BD00100840007F077FD0200240D02002402DE9F04121
:205BEC0001F0A4FE0C4D07462868002490B1DFF82C80012606FA04F0074206D058F824003A
:205C0C0018B102680AB1214690472868641CE4B2A042EFD8BDE8F081A01E0020B41A00201B
:205C2C000E4938B50968814213D10D48007880B101F0D8FF0546084801F0CCF9044628462D
:205C4C0001F0CCFF04F0FF00012802D14FFAA4F001E06FF07F0038BD01000304E01E0020D6
:205C6C00111F00200C4885460C4885446F4607208743BD460A486F4607600A48002803D028
:205C8C007946491D8E460047FDF7E0FE01F046FC01F020FFFEE7C046F8410020000400005B
:205CAC00A00900204579000000BF704708B5FFF7FBFFFEE738B50546094800688047094C3C
:205CCC00201D006810B1014628468847206800B18047054800688047FFF7E8FF38BDC0467A
:205CEC00840900208C09002088090020002944BF0020704704B54FEA41024FEA5252B2F5C9
:205D0C004072FF3A44BF002004BDD2F11F020CD34FEAC12141F00041D1400B2A3EBF1532CE
:205D2C0020FA02F21143084604BD0020401E04BD38B51C4615460B460222102100F02EFE3B
:205D4C00B0B9002000906946284600F0EEFF78B90099487848B90846C1798C4205D1014626
:205D6C00049889682246FDF7ADFF009801F0E2F838BDFEE7C0B516460822ADF1140DADF8E6
:205D8C0000201922ADF8022001900948029101681F466846884716B1BDF80C10318017B104
:205DAC009DF80E1039700499089A05B01160C0BD6C090020F8B51E4614460D18102E02D361
:205DCC00103EAD1C240C01F051FD002700B9012707483B460768002FFCD02D8801210160B7
:205DEC000BB101F049FD2C403441A0B2F8BDC04600800C4070B50020FFF7ACFE0446201388
:205E0C0080F0020000F045FD08A20CCAFCF73CFD06460D46C4F30B0000F03BFD0B46024604
:205E2C0029463046FCF730FD70BDC0467B14AE47E17A843F1CB50B46D9781446012902D1B2
:205E4C0099880B4A11801021022200F0A7FD30B9002000906946204600F067FF10B101F090
:205E6C0066F904E00098447801F064F820461CBD700900202DE9F0410646984615460C463C
:205E8C00102000F077FE071C10D02A46042101F0E1FB5020314600F095FE3872FC6000F09C
:205EAC007DFE39464246FFF7C5FF00E00420BDE8F081704700B500213C220823ADF13C0D83
:205ECC00684601F01BFE0748084907904FF40270089003200690044800236A4601F0F6FDBE
:205EEC000FB000BDE4120020301B00207D2B00003EB505460020ADF804000A2000F03AFE98
:205F0C00041C0DD00421312201F0A4FB258100F045FE01A90223044A00912146FFF708FF85
:205F2C00BDF804003EBDC046FF79000010B50C4C002319469800224600EBC3005B1C121835
:205F4C001160032B9160F5D3064A0B46980000EBC3005B1C1152062BF8D301F067FA10BD01
:205F6C00B41C0020D01B00200C49086820F0020040F4007008600A48032140F8041C41F236
:205F8C0030018160012101605022826001604FF4CA628260016040F80C1C7047000004607E
:205FAC000C4104400D4938B5D1F8EC3209681B3800FB00F409060A1643F3072100FB01F5E9
:205FCC0019066043091661434243891201EBE50101EBA24000EB234038BDC046A410005023
:205FEC00F8B50746BD686C6894F88D0001F04EFA94F88D100646384600F0F6F8064800EA47
:20600C000601884206D1D4F88810042008742846FCF728FEF8BDC0460000068000B500212A
:20602C003C220823ADF13C0D684601F067FD0748084907904FF42F7008900120069004482D
:20604C0000236A4601F042FD0FB000BD28100020801B0020C552000038B5044601F0C2FDA4
:20606C0005460B48007870B1204600F0B3FF0446284601F0B3FD04F0FF04012C01D18120E5
:20608C0005E0022003E0284601F0A8FD012038BD111F0020F8B505462F680C460026266013
:2060AC001FB901F09FFD2C600DE001F09BFD00E03F6839680029FBD1BC4203D101F08EFD02
:2060CC00304603E03C6001F089FD0120F8BD000038B50B4C2068B0F1FF3F10D10021094D6F
:2060EC00216004E0896888472168491C21608A00284602EBC102801801680029F2D138BD76
:20610C009C090020AC7E000010B5044601F0D4F80949086034F8040C6FF3DF3024F8040C25
:20612C0006480368221F9A4201D2241F0460086801F03CFA10BDC0468C1E0020BC1E0020D5
:20614C0010B504460B4802680023D90750080143D007801A4FF47A729941FBF7EDF900294D
:20616C0001D1B0F1004F01D36FF000406060002010BDC046A07F0000B0B5044601F09CF8D8
:20618C000A4B0022910001EBC2015D182F6847B1A74203D101F00AFA284605E0521C032A98
:2061AC00F0D301F003FA0020B0BDC046B41C002000B50B4A1070081250709170ADF11C0D73
:2061CC0000920320019000200290039044208DF8100004480068694601F0B9FB07B000BDB3
:2061EC00001F0020CC1E00200A460B4908B5096802F0FF03994206D9084902F0FF0351F83C
:20620C002310884201D0022004E04FF4E02100F0DDF8002008BDC046A01E0020B41A0020DE
:20622C0080B51746094A12688A4204D9084A52F82120904201D0022006E0002207B10122C5
:20624C000448D0384254002080BDC046A01E0020B41A0020D020024038B50B4C2068B0F17A
:20626C00FF3F10D10020094D206004E0896888472068401C20602168880000EBC1002818F8
:20628C0001680029F2D138BD94090020C47E00002DE9B0430F46044601F0C4FB04F1280232
:2062AC0092E800034B464246FBF746F905460B462A464046494601F03DF917B1303484E82B
:2062CC0003002846BDE8B08370B506460D460C2000F050FC041C0CD00421302201F0BAF926
:2062EC002681658100F05AFC034A2146FFF7A2FD00E0042070BDC0460B7A00007FB506463A
:20630C000820ADF800000920ADF8020007480D460168144668468847BDF8041031809DF8E3
:20632C00061029700299216000907FBD6C0900207FB506460820ADF800000920ADF8020008
:20634C0007480D460168144668468847BDF8041031809DF8061029700299216000907FBDA9
:20636C006C09002038B5054600F0A6FF094A0024A10001EBC401515A41B1A94203D101F099
:20638C0015F9E0B205E0641C062CF1D301F00EF9FF2038BDD01B002010B503200021FFF7E0
:2063AC0029FA012000F0FCFE18B10648006800F06DFC01F047F8044C083C606000F0C6FB96
:2063CC00206110BD80000010481E00200A4B10B51B6802F0FF04A34206D9084B02F0FF04AF
:2063EC0053F82430984201D0022004E008461146FDF7D0F9002010BDA01E0020B41A002026
:20640C0038B501F0EFFB05460948801F007838B106480024342101222346FFF7CBFC00B14B
:20642C000124284601F0DAFB204638BD00A00C400606002038B50D46044601F0F5FA10B159
:20644C00204600F037FE074800684FF47A71B1FBF0F005FB00F1204601F0CCFB204601F0CE
:20646C00C5FB38BDA07F000038B50C46054600F023FF002144F80C1C296809B92C6009E053
:20648C00296801E051F80C1C51F80C2C002AF9D141F80C4C01F08AF838BD10B5044601F09F
:2064AC0051FBFFF769FE10B96FF004000DE0083000F0F8FAA060A06830B10C3801792171BB
:2064CC004079A071002000E0022010BD10B5044600212C220823ADF1300D684601F020FABA
:2064EC00E02008906068A16800236A4601F0EAFA08B1002001E0FFF7D9FB0CB010BD10B5AD
:20650C00044600212C220823ADF1300D684601F007FAE0680890A168606800236A4601F09B
:20652C00D1FA08B1002001E0FFF7C0FB0CB010BD1078802811D1508840F27F6181420CD1F4
:20654C0090883F21B1EBA02F07D1C0F3C211042903D100F07F00834201D0002000E00120C7
:20656C00704770B5044604F128020CCA0846002100F0E0FF04F1300292E860002D1846EB3F
:20658C000106290C3004014300F026F9383484E8600070BD38B50246916840F6030520201B
:2065AC002C46641C02E04968401EC0B251B148B10B889D4201D09C42F5D1D06818221830DE
:2065CC00FDF780FB38BD0000084A08B51268824298BF002009D901B90549064B820002EBDD
:2065EC00C00298180268D268904708BD9C090020507F0000AC7E000010B5401E14460DD0C5
:20660C00401E09D0801E05D0001F01D0FFF74EFB052004E0002002E0042000E002202268DA
:20662C0021469047002010BD0A4A10B512680C464FF47A710023A1FB0001FAF77DFF0029BA
:20664C0001D1B0F1004F02D36FF0020001E02060002010BDA07F000010B5044601F0C2FA0D
:20666C00084BE21892F8E810491EC9B282F8E81021B99A680121A1408A439A6001F0AEFAAC
:20668C0010BDC0462005002038B5044601F0AAFA084A02F108031D680121A140121929439B
:2066AC00196092F8E810491C82F8E81001F096FA38BDC04620050020094A08B512688242ED
:2066CC0001D8002009E001B90449820002EBC002044880180268D268904708BD547E00009E
:2066EC0094090020C47E00000949020480B5120C41F8082CC0F3074041F8040C01200860AB
:20670C0004480768002FFCD00020086080BDC04644600C4084088C4370B5064615460C4683
:20672C000C2000F077FA011C04D1284600F0D2FB002008E08D60304601F0C0F914B1204663
:20674C0001F0F8F9012070BD094808B501F0B8F80848FBF7D3F8FFF7E9FBFDF7B5FCFFF7CC
