:020000040001F9
:2080000038B50D46044602F0C3FF07482168016061684160A168816004F0CCFD03F06FFB7B
:20802000284604F050FE38BD6C46002002F0B0BF00BF00BF04F0BEBD00BF00BF03F05FBBF0
:0C80400000BF00BF04F03FBE00BF00BF47
:20804C00282808DA4FF6FF72914204D0C04A22F8101000207047022070472828BABFBC49C3
:20806C0031F810004FF6FF70704770B504460D46B84E1C220021304603F0D9FB3477757755
:20808C0004F0E2FE00280EBF012100211220317070BD10B5AF4CE160A0601022002103F081
:2080AC0035FF012805D1A068BDE81040102100F0CEBE10BDA74948607047A648406870476E
:2080CC002DE9FC41A34D0446002695F81E80042C0F4624DA2878032818BF102054D100F04C
:2080EC0012FD28B900F03EF910B900F03DF908B1122049E0012C18BF022C1DD1BFB10622A2
:20810C000021684603F093FB00F040F838B90622FF21684603F08BFB00F038F808B1022080
:20812C0032E006223946684603F083FB0BE00621684600F08CFE06E0032C04D168686946B8
:20814C0000F040FD0646844FAC770421387803F02AF9002028849EB9ACB1684600F052F851
:20816C0006000DD1032C0ED11D20FFF776FF288448B138784EF66022042103F04EF902E0FD
:20818C000EB185F81E803046BDE8F68106226946384603F0A9BE70B5044600256D4E2CB984
:2081AC0021B1062206F1100003F043FB307801280BD1012524B90220307001F052F904E0EF
:2081CC0000203070204600F0A2F8284670BD38B50024A8B101785F4A31B94378857803EB2C
:2081EC000523D382C07810761078022808D1012400290CBF032000201070084600F087F814
:20820C00204632BD10B5534CA17F81B10146062204F1240003F00DFBA07F04F1240100F09B
:20822C0008F804F12400BDE8104004F011BE002010BD002918BF00280DD04A79012808BFBC
:20824C0042F0C00006D002F03F0203284A7102D142F0400048717047010018BF0121084634
:20826C00704770B53B4D0446287FFF2815D00A2003F0C8FA060010D0D02030707470082030
:20828C00B0700622A87FF07005F12401301D03F0D0FA287F314603F098FBE87F01280FD1CA
:2082AC002E48006818B18068010018BF8047BDE87040294800784EF66022042103F0ADB803
:2082CC0070BD2448806870472248C068006870472048C1680A68521C0A60007FFF281CBF4D
:2082EC004FF4804103F0ADBB70471A48807F704738B50446174D05F1100004F0ADFD05F10F
:20830C0010001CB9A97F09B105F1240032BD70B5104D0446287FFF2819D00E2003F072FA71
:20832C00060014D0D020307074700020B070062205F11001F01C03F07CFAE88A7081314615
:20834C00287E3073287FBDE8704003F03EBB70BDAC46002080460020184700201C470020B9
:20836C0000F04CBC264800E02648006800B101207047010001D0172801DBFF2801D1012045
:20838C007047002070472DE9F84F0D4693460024BBF1200F80461F462C7003DB0020BDE851
:2083AC00F28F0419E4B25C45F8D2E65D641C002EF4D0E4B231198B45F0DB14F807A0504699
:2083CC00FFF7D7FF641C0028E8D0701EC2452870E7D1E4B2E019E2E70B490A781043087087
:2083EC00704709490A7832EA0000087006D10748006818B14068010018BF0047704700007D
:20840C00FC450020F8450020004600200446002070B5DFF85C66054630680C4608B11120E5
:20842C0070BDDFF8500600780521084201D1122070BDDFF84406806800281CBF0078002811
:20844C0001D1102070BD0C2004F099FB306040B30120FFF7C1FF306805700021306841705C
:20846C000A222146801C03F0E4F900F02DF9040002D000F0DCFA15E0DFF8000600780328CA
:20848C0010D11D20FFF7E9FDDFF8F415088048B1DFF8F00500784EF66022042102F0BDFF98
:2084AC0000E01324204670BDF8B50C46DFF8C41509781546052211421E462AD001F00501AC
:2084CC00214326D0012CDFF8B01502D18F6807B301E0CF68EFB1202D01DA15B10EB902205A
:2084EC00F2BD08701F220021781C03F0A0F92A463146781C03F09DF93D70284624B1791C3E
:20850C00BDE8F44004F0ACBC791CBDE8F44004F0ABBC1220F2BD38B5DFF85445216809B9C8
:20852C00122032BD0978814201D0032032BDDFF854552878022102F036FFDFF84C15002025
:20854C0008800421287802F02EFFDFF83415002008800320216848700020BDE8324004F04C
:20856C0087BC10B50446DFF80C0582B000780521084201D1122016BD1CB12078FFF7F9FE72
:20858C0008B9022016BD6078801C202812DA207800F0AFF908B1182016BD69460DF10100CF
:2085AC0000F0B4F99DF8000030B161780818801C202801DB0B2016BD204600F067F916BD5C
:2085CC0080B5DFF8B01409780522114201D1002002BD00F08EF900B1406802BDDFF8941405
:2085EC0009780522114218BF00F06AB900207047DFF8800400780521084218BF00F0A1B94F
:20860C001220704770B5DFF87044A06818B104F0A9FA0020A060E06818B104F0A3FA00206B
:20862C00E0600521DFF84C54287808421CD004F1100000F0C1FA287800260521084211D0B4
:20864C0000F0D6F9A06060B100F013F800F0D0F9E06010B100F00DF804E0A06804F082FA38
:20866C00A6601326304670BD002000F0A5FA002070BD2022002103F0DAB810B58188012435
:20868C0042F20603CA1A05D0921E012A0DD9921E05D016E08068007800F04FF803E080683A
:2086AC00007800F05BF804460CE042F2080291420CBF0122002280680178104600F099F864
:2086CC0000E00024204610BDF0B5DFF8A47385B0386878B3847800F016FA28B10A20FFF7CF
:2086EC00BCFC05460B200DE000F0AFF928B10620FFF7B3FC0546072004E00820FFF7ADFCFA
:20870C0005460920FFF7A9FC0646DFF870030078FFF7A2FD3968CA7A039203468A7A029240
:20872C0028460A1D01922246C9780091314604F0A3FB00E0012005B0F0BD80B5DFF8301310
:20874C00096849B118B90120487004F091FB08B100F051F9012002BD002002BD2DE9F0417F
:20876C00C34D80462868002841D04078C74E01282DD100F06AF9C34FA0B10120FFF76DFC24
:20878C000446422C0AD338784EF66022022102F044FEBD49A4F13C0008800CE04FF47A70F3
:2087AC00444302E0FFF759FC044624B138782246022102F0E0FD296802204870307818B9EC
:2087CC00404600F018F911E0002030700EE0307860B9032003F016F830B1D021017080F8C7
:2087EC000180042100F01DF900F021F90120BDE8F08170B5A04E04463078FF280D460FD022
:20880C00042002F0FFFF58B1D0210170457002218170C47001463078BDE8704003F0D5B80C
:20882C0070BD38B501469248964D02682878964C01291DD1218811B1944B1B7823B122B384
:20884C00BDE83240107866E63C29A8BFA1F13C000CDA022102F0A7FD20884FF47A7101FB16
:20886C0000F22878022102F086FD0020208031BD5AB180490978490707D5022102F093FDEE
:20888C0000202080BDE83140D1E031BD38B50446082004F074F9050010D00822FFF7EAFEAA
:2088AC007548416831B100E0014608680028FBD10D6000E045606C60002032BD132032BDEA
:2088CC0010B56D4B5968002201E00A46096871B14C6824788442F8D14C680868002A14BF68
:2088EC0010605860084604F03DF9204610BD002010BD6149496800E0096829B14A681278EA
:20890C008242F9D1084670470020704770B5002202700A70584B5B6803E0AD1C2C190470E3
:20892C001B686BB15C6865782AB904782E19B61C202EF2DB01220C78AD1C2C190C70EFE751
:20894C0070BDF8B54B48007800240521084201D11220F2BD484DA86810B900F049F8A86038
:20896C00E86810B900F044F8E860A86800281CBFE968002901D11320F2BDFFF77AFEE8685F
:20898C00FFF777FE6E6812E09B1C88185918401C117071684978491C017071680978417078
:2089AC00801C71684A78496802F043FF36689EB144B9AA687068117843785F18BF1C202FD6
:2089CC00E2DB01247368E9685B780A789B1C50189A18401C0A70DCE7AA681078511C04F0C3
:2089EC003FFAE868411C007804F03EFA0020F2BD202004F0C4B838B51D4D0446286878B108
:208A0C00032002F0FFFE28B1D02101704470032100F007F8002C1CBFBDE8314000F007B86A
:208A2C0031BD817001462868007802F0CEBF10B50F4C206840B104F095F8002020600120A2
:208A4C00BDE81040FFF7CDBC10BD80B50A48806858B10278431C69460120FFF794FC20B151
:208A6C000078C00701D5012002BD002002BD0000FC4500209D460020FC4600209E4600204C
:208A8C00A046002018470020024600209F4600204B49487070474A49087002F059BA70B5A0
:208AAC000C462004464D14D5287802F0E9FE06000CD000F02AF830B96878FF2803D0314611
:208ACC0002F083FF10B1304602F0ABFF84F4004070BDE00709D5A86820B1416808001CBF2C
:208AEC000020884784F0010070BDA00709D5686820B1416808001CBF0120884784F00200C1
:208B0C0070BD002070BD0020704738B5017891294CD142782A490E2A02D03E2A3BD045E0EC
:208B2C008288012441F20905531B24D040F6F9755B1B26D0DB1E29D05B1E09D09B1E022B1D
:208B4C0006D9DB1E0ED05B1E09D09B1E2FD02DE0496861B309680A0029D0884714E0836855
:208B6C001B7823B3896811B30B6819001FD001461046984708E08068411C0078FFF70BFB33
:208B8C0002E08068FFF723FB044610E080680078FFF767FB0BE082780124022A06D18968FB
:208BAC0029B149680A0002D0884700E00024204632BD034988607047014948607047000086
:208BCC001847002038B504000D4618BF002D01D1022032BD0321684600F039F900F02FF8D4
:208BEC002A466946204600F077F8040004D103226946E81C02F01DFE204632BD30B583B05A
:208C0C0004000D4618BF002D01D102203EBD0322E91C684602F00DFE00F011F801AA6946D6
:208C2C00204600F059F848B90322294601A803F05BF9012801D100203EBD01203EBD9DF835
:208C4C00021001F03F0141F040018DF80210704730B58DB00C46002818BF002C154600D03B
:208C6C000DB9022010E0014600F010F81022214604A803F027F900F062F80446102208A902
:208C8C00284603F01FF920460DB030BD1022684603F018B980B52020FFF7DFF938B1024627
:208CAC0006480078BDE80840012102F064BB01BD02480078012102F076BB00000146002096
:208CCC0070B58CB000F020F800F019F8280A8DF81E008DF81F50AAE070B58CB000F014F86E
:208CEC0000F00DF8032229460DF11D0003F0EAF800F025F8044603220DF12D019CE0102299
:208D0C002146684603F0DEB804460D46164630220021684602F08BBD70B58CB0FFF7F4FF0B
:208D2C00FFF7EDFF00F08EF800F009F89DF82F109DF82E2001EB022131800CB070BD6846D0
:208D4C00CAE0F0B595B005460C4616461F463022002108A802F06BFD1022294608A803F054
:208D6C00B1F810220021684602F061FD07223146FFF78DFF072239460DF1070003F0A2F891
:208D8C001C9901B101218DF80E101A9901B101218DF80F101022002104A802F048FD1B9986
:208DAC00062205A803F08EF81D9906220DF11A0003F088F8102221460CA803F083F8694686
:208DCC000CA800F01AF808A800F086F80446102210A90CA802F02DFD04A90CA800F00DF858
:208DEC0008A800F079F805461E98102210A903F069F845EA040015B0F0BD10B510220378FF
:208E0C0011F8014B6340521E00F8013BF7D110BD70B50C468CB0154601461E46FFF736FF31
:208E2C000822214604A803F04DF800F00BF8FFF786FF0446102208A9304603F043F820460C
:208E4C000CB070BD0822294606A803F03BB870B504460D46002609E002F066FC010A31553A
:208E6C00761CF6B2AE423CBF3055761CF6B2AE42F2D370BD006800F00301C0F3800241EA64
:208E8C008201C0F3C00241EAC201C0F3001241EA0211400941EA4010C0B2704702689208EC
:208EAC0041EA820222F004038A0802F0010243EA820222F00803CA0802F0010243EAC202D1
:208ECC0022F0F0030A0902F0010243EA0212490942EA41110160704700F1200200F110013B
:208EEC0003F0CEBF80B500F022F803F0CDFF03F0CFFFBDE804400FF2350103F0CDBF7CB557
:208F0C003B4D3C4E2A68019104460A20ADF800008DF802403068526A694690472A68364845
:208F2C00926A40EA04213068904773BD704738B5324C2F4A02202080214612682D48526ACC
:208F4C0000689047812801D0032032BD00202C49FF22002501EBC003401C04281A705A70D4
:208F6C005D60F7DB002000222389012585402B4209D001F8320001EBC205521CD2B2012343
:208F8C00042A6B7002D0401C1028EDDB002032BD70B504461B4884B000680D4680470646AB
:208FAC00A06810B9A56004E0084601680029FBD105600020286005200D4A1268ADF8000097
:208FCC000194029569460B48526A00689047812806D0206800280EBF2560606805606560E9
:208FEC003046094909688847002004B070BD0000504700204C47002001000904CC4F0020A9
:20900C00AC4F00207046002074460020DFF8C0039021017088214170012181700221C170FC
:20902C000021017180214171002181712021C1710021DFF8A0038160C1601F210170002149
:20904C004170418041601F20DFF88C13087070472DE9F04100F081F80D4616461F4642D532
:20906C00DFF87003007840073DD5DFF8708398F8000098B10C2002F0C5FBA0B391210170D2
:20908C0084803E214170C5800321817006810021C1704781014698F8000023E0152002F0B4
:2090AC00B1FB00B3012101700422FF21417000F1080141600A704C713E224A70CD710A2265
:2090CC008A704E720322CA70CF7200220A71220A8A712A0A0A72320A8A723A0A0A73014676
:2090EC00BF48007880E1BDE8F08138B500F035F832D5B848807A00062ED5B84D287858B1AC
:20910C00062002F07FFB38B390210170448057214170014628781BE00D2002F073FB010047
:20912C001AD001200870FF20487001F10800486004204A68107057204A68507002204A6814
:20914C0090704868C470200A4A681071A4480078BDE8344002F039BC31BD04469C48C07909
:20916C00800670472DE9F54F994881B0C07980068846994640F1ED80964E31787078C907EB
:20918C0000F0020001D4002867D0944909780F9C109DDDF844A0DDF848B0002950D02220D6
:2091AC0002F030FB070058D0912038703E2078709DF8040038B9F87006220C9907F10800F9
:2091CC0002F037FB07E03120F8700622002107F1080002F02CFB707880071AD50A20B870AD
:2091EC000D9830B10146062207F1150002F021FB01E000F0BBF80E9830B10146062207F1E1
:20920C001B0002F016FB01E000F0AAF887F8079008E00120B87000F0A9F800F0A1F809F057
:20922C000100F871A7F8048039469DF80800B871FC813D82A7F812A087F814B0674882E06F
:20924C00002814BF1F2013208DF800009DF800000B30C0B202F0D6FA07007AD001203870F2
:20926C00FF20787007F1080078600420796808703E207968487079689DF800008870717838
:20928C00786889074CBF0A210121C17079689DF804000871786880F805804FEA18207968A7
:2092AC00887179689DF80800C8717178786889074EBF80F8089009F00101017278680C9989
:2092CC0021B10622093002F0B4FA03E00622093002F0ADFA71780F20890718D578680D99B7
:2092EC0021B106220F3002F0A4FA03E006220F3002F09DFA78680E9921B10622153002F00E
:20930C0098FA03E00622153002F091FA1B2079684454401C7A68C0B2210A00F01CF84554B6
:20932C00401C7A68C0B2290A00F015F800F801A0401C7A68C0B24FEA1A2100F00CF800F898
:20934C0001B039462648007803B0BDE8F04F02F03CBBBDE8F78F8154401C7968C0B2704705
:20936C000622002107F11B0002F061BA0622002107F1150002F05BBA2DE9F041174F044624
:20938C0038780D469046C8B116480078B0B905F10C0080B202F036FA060017D0912030709C
:2093AC002A46FF207070B570B48006F10C00B060414602F03EFA3878314615E043462A4600
:2093CC002146BDE8F041FF2003F06ABDBDE8F081004F002008460020084F00202246002019
:2093EC0020460020284F0020BDE8F04102F0EDBA30B540F67B44851FA5423CBF8D1FA542E2
:20940C0012D2814210D3B2F5FA7F0DDAA3F10A0040F67744A04207D2501C49004843B0EB8A
:20942C00C30F8041C00F30BD002030BD80B500F034FC8DF80000FFF7E9FD434900200870EA
:20944C006A4642490880012140F603401CE080B50FF29012412141F2020003F025FD002002
:20946C0002BD80B500208DF800006A46384800788DF80100042100208DF802003548007858
:20948C008DF8030042F2020003F00EFD002002BD0120704780B5012300F066FD00F01BF89E
:2094AC0042F21E00F0E780B5012100F015FE00F012F842F21D00E7E780B530B1014608227D
:2094CC00254802F0B6F9002000E0122000F003F840F66340D8E78DF800006A4601217047AF
:2094EC0080B51D218DF8001004218DF8011010B903F0DEFC00E011208DF802006A4603219B
:20950C004FF61D400DE080B51C208DF800006A4604208DF8010003210C208DF802004FF644
:20952C001C40FFF729FF002002BD80B530B10B4902780A7040784870002000E01220FFF7D0
:20954C00CAFF42F201009FE7244F0020264F0020404700204247002010460020084600201F
:20956C0000B585B06A460DF1020101A803F0A4FC8DF80800202107208DF8090002AA02A82F
:20958C00817002218DF80B109DF804108DF80C10BDF802108DF80D10090A8DF80E10BDF8ED
:2095AC000010C171090A017241F20100092103F07BFC002005B000BD10B582B004460DF13E
:2095CC00030100F00DFF8DF800008DF80140200A8DF802006A46042141F2054003F064FCE3
:2095EC00002016BD000000800000C000000000E00000002802000000000000040000F7C364
:20960C00A37800000000000000000000000000000000000000000000000000000000000023
:20962C000000000000000000F8B5012001F0CEFA01282C4C2C4D45D12C4E06F19A00418893
:20964C0011B1007802F0FDF906F11007387A01280AD1B87AA87120B1787AC0EB4010801976
:20966C001B30A86000203872B87803280FD006F15900017801290AD18178E97121B14178DB
:20968C00C1EB411189195C31E960002101700B2603F016FC3A8890FBF6F60B2707FB1600FD
:2096AC0080B24FF47A667043A16840F6C41380B203FB02004018A060207B00F0F00040F04B
:2096CC0002002073E87E00F0E00040F08600E8760748E8610020608060836086BDE8F14068
:2096EC0003F0F2BB244C0020584D0020EC49002000204E002DE9F041079D002600274FF629
:20970C00FF7435F817C0A4451CBF761CF6B27F1C062FF6DB00270DE00CF1010C5FFA8CFC28
:20972C00E646B64505DA35F8178035F81EE0F045F2D17F1CB74208DA35F817C0A44504D0F9
:20974C00614528BF07F1010CE8D2B7420DD176B1884202D04BB1994207D30698114603F07E
:20976C00B7FB47F6FF71884201DB012000E00020BDE8F08110B5844C0821601C01F092FCE8
:20978C00607840F00100607010BD8048804B40F602010180002141804160816001730121D0
:2097AC00417300218173C1737A49098801827A49C96A8A681B78126803EB43039A18B2F844
:2097CC000120428249684161704730B583B0FFF7DCFF0020CDE90000704D71482D686B4C0D
:2097EC0000682D69002303222146A8476D4AC2E900016088B0F5806F1CBF892003F06CFB04
:20980C006548694AC068127841881143614A118000786649800643BF65480068400A0020A3
:20982C00087037BD70B582B004461020ADF8000004EB44055848594AC66AB0680068126895
:20984C0028186946B0F80100ADF802005448526A006890474E484D490470B06800682818C6
:20986C00B0F80100488273BD4B484949C06A80680978006801EB4101085670474D48817B45
:20988C00012903D1007D08B10C2070470020704702B10422012804D0022806D004280AD0F2
:2098AC000BE0C2EBD1000A3803E04800C2EBE0000B3880B27047002070471B20704702B191
:2098CC000422012804D0022806D004280CD00DE050180A30C00405E050180B30C00000EBCB
:2098EC00D070C003000C7047002070474FF4A470704740F2024188422F48284B0CBF01229A
:20990C000022B0F900101B6825485B690068184710B588B040F60302ADF80820ADF8161015
:20992C000022ADF80A200392049200219DF814201A4CADF8181002F060028DF814208DF850
:20994C001A008DF81B1000239DF81520144802F0F00242F001028DF815200791CDE90011B6
:20996C00246800682469032202A9A0470D4AC2E90001BDF80A00B0F5806F1CBF882003F0D7
:20998C00ABFA08B010BD0000D04E002078470020B94C0020944C002000D7010050470020C0
:2099AC004C4700201846002041470020C04C002080130050EC49002048470020704703F005
:2099CC008BBA000080B54FF49E720FF63C31DFF8740A01F019FBDFF8700A002101700122DC
:2099EC00DFF8681A0A7302220A70DFF8641AC0F80D10DFF8601AC0F82D1001BD2DE9F04172
:209A0C000FF64040DFF8501A272250F8043B50F8044B50F8045B50F8046B50F8047B50F8A0
:209A2C0004CB50F804EB50F8048B41F8043B41F8044B41F8045B41F8046B41F8047B41F80C
:209A4C0004CB41F804EB521E41F8048BDDD142688368006808604A608B60BDE8F081F0B568
:209A6C00DFF8F849DFF8F85983B02070072100206861DFF8F00901700D2141804FF40871DA
:209A8C008180DFF8E409DFF8E419A9618A7E0270FF2ACB7E43700E7F86704F7FC77091F867
:209AAC001EC080F804C0C97F417108BFFF2B16D1FF2E08BFFF2F12D1BCF1FF0F08BFFF29FF
:209ACC000DD1DFF8AC190A7802704A7842708A788270CA78C2700A79027149794171DFF8EF
:209AEC0094190278DFF89069DFF890390A7042784A7082788A70C278CA7002790A714079BE
:209B0C00DFF87C294871FF21DFF87809017041708170C1700171417101202871101D0171CB
:209B2C0041718171C17101724172002101708172A0218181032181730721C17300210174CB
:209B4C0028214182012101750021817502F15A0100224A7001220A7042750020DFF8281988
:209B6C00DFF828290880F16A4878A87008781070801C8A782A708A681279521E1A70CA7805
:209B8C006A70C968DFF8082929614FF4967111801821484380B202F0F2FFDFF8F818886099
:209BAC0010B94FF4804126E0DFF8EC080068804707460820ADF800001E20ADF802004FF48A
:209BCC000050DFF8D818096801906846884701F0E3FCF068697800880843DFF8C4180880CC
:209BEC003846DFF8C018096888472078002102F07AFF4FF40051207801F023FFF7BD70B5B0
:209C0C000C46E00713D503F06BF938B100218160DFF894080068010018BF8047DFF83C0840
:209C2C000078002102F05FFF84F0010070BDA00508D5DFF87808016841F00041016084F400
:209C4C00007070BD600504D501F06CFD84F4806070BD600405D5812003F03EF984F48040FD
:209C6C0070BDA00417D5DFF8F8574FF0FF306861FFF78BFD2E69366805F12C0305F13802B6
:209C8C0005F11C0105F15000B047E86000F005F884F4005070BD002070BD80B5DFF8C037EE
:209CAC00D8681B699B6900224FF0FF319847DFF8C807DFF8FC17C06A806840790870FFF797
:209CCC0084FDDFF8F00703F00FF903F011F903F013F9DFF8AC0700F10E0100220A70A0224A
:209CEC004A8007224A7103220A7100220A738A7200F8592F0122CA7200214270817000F0DC
:209D0C001FFFFFF737FDDFF8B01700200870DFF8AC170880DFF8A817087002BD10B5040001
:209D2C0001D1122010BDFFF725FDDFF898072278417811404170627881781140817000202E
:209D4C0010BD38B50D00044606D0DFF82C07C06A80680079844201D3122032BD2046FFF764
:209D6C0061FDDFF84C07047001202870002032BDDFF80417C96A8968097988422FBF122091
:209D8C00DFF8F81608700020704730B5DFF8300783B0017809B121203EBDDFF82C17DFF8FD
:209DAC002C470B7B496003F0E00343F085030B7341F60A024B7B0A8003F0F00343F0020335
:209DCC004B73002266238B734A808023CB7340F6C412DFF8FC368A600B614C615A6001256D
:209DEC001A7A1D8002F0FE021A722525DA7A9D7002F0F002002542F00102DD705D72DD6066
:209E0C00DA7225800D2202704FF0FF33DFF8C426DFF84C462569E068CDE90023AD68DFF86E
:209E2C00B8360322A8473EE030B5282983B003DA050018BF012D01D012203EBDDFF880460B
:209E4C00207808B121203EBD480000F6621081B20120FFF75DFDDFF88416DFF87C36496072
:209E6C0040F608000880002048808860012D087B00F06000087300F056F80CBF03200A206E
:209E8C0088730022DFF858064861002008828861CDE90022C87C00F041F8C87403220B2057
:209EAC0000F048F8A847208100203EBD30B5282883B001DB12203EBDDFF80446217809B1D6
:209ECC0021203EBD400000F6621081B20020FFF71FFDDFF81016DFF80036496040F607003D
:209EEC0008800022002048808860CDE90022087B00F060000873032200F015F80220887377
:209F0C00DFF8DC05086100204861C87B00F006F8C8730C2000F00EF8A847C4E700F0F00043
:209F2C0040F001007047487B00F0F00040F00200487370472070DFF828452569E068AD6827
:209F4C00704780B5DFF8780500780B281CBF0C280D2801D0212002BD40F20140FFF7C9FCC7
:209F6C00FFF79BFE002002BD2DE9F04F83B00D462828B8BF262D804616460FDA002E18BF62
:209F8C00012E0DD0022E18BF032E09D0042E18BF052E05D0062E18BF072E01D0122099E0CB
:209FAC00DFF81C9599F8001009B1212092E0DFF81845DFF81C75DFF814A541F60A012180F0
:209FCC004000002161806460A1606630217B01F06001217340F6C41B617B01F0F00141F052
:209FEC0002016173A07329468020E0732761C4F814A000203880BD701846FE70012818BF40
:20A00C0002281BD10022FFF75AFCB0F5BC7FD8BFC7F804B02EDDB0F57A7FD8BF41F288309B
:20A02C0027DDB0F5CB6FD8BF41F64C5021DD40F6490188421EDA42F210701AE003280CBFE3
:20A04C00082002204143C9001B2202FB001000F5BC7080B2F93040F2712190FBF1F140F234
:20A06C007122796002FB110000B1012040180BFB00F07860387A00F0FE00387200210020D7
:20A08C007872F860F87AFFF749FFF8720020AAF80000DFF854048180C18080F8008080218C
:20A0AC00457086700172DFF8D403DFF804140078DFF8AC630870092089F80000FFF785FBE3
:20A0CC0000F06DF83569F068AD6803222146A84730810020BDE8FE8F30B5282883B001DB52
:20A0EC0012203EBDDFF8D8130B780BB121203EBDDFF8D44341F609032380420000236380CE
:20A10C00A3606632237BA27303F0600323738022637BE27303F0F00343F00203637364606C
:20A12C00DFF8C823DFF8C83322616361002515600F25157101255571DFF8A45395605525BB
:20A14C0015735573957300251561D57B05F0F00545F00105D57300221A805A809A808022F1
:20A16C009A7100229A60BE4DDFF87C23107000205070FF20907000209080D080802010720A
:20A18C000A200870FFF721FB00F009F8032221462C69E868A468A047288100203EBDDFF80F
:20A1AC005403CD4B4FF0FF31CDE90001704770B5C34C2078092818BF0A2801D0212070BD02
:20A1CC0040F20240FFF795FB2078C749092809D1BE4800888880B6480078FFF723FB002185
:20A1EC00002015E00A2815D1C14A538810889688CB801D1875198D809279802A18BF812A38
:20A20C000FBF7F22BC4B93F90030D21A0A72012102F076FE0020207070BDF8B50446904D5F
:20A22C000020160028710FD0012A05D0032A18BF022A0DD0042A41D1079800283ED00698A4
:20A24C00002818BF012839D1032A18BF022A09D143F66170A4F1A00686423CBFA1F1A00676
:20A26C0086422BD2002A18BF042A09D143F6E170A4F1200686423CBFA1F1200787421DD28B
:20A28C00A1421BD3002B18BF012B17D10998002818BF012803D0022818BF03280ED1089983
:20A2AC00072631420AD0764FBE7B012E01D10C20F2BD002A1CBF012A042A01D11220F2BD2D
:20A2CC0001F00701F974BA74387523B9002038710622654905E0012B07D1012038710622DB
:20A2EC00684907F1080001F0A4FA3C82012028710020F2BDF8B5724C2178092918BF0A298B
:20A30C003AD00B291CBF0C290D2935D054490979002957D05A4D68B3012853D1A87B0128DE
:20A32C002AD0012000F025FC286000260120A87302F0EAFD7148182101FB0607387B40F044
:20A34C0080003873A87C012807D026B900F0F1FB00F5C87000E00020B860761C032EE9DB1B
:20A36C00207828B9A97C6648085C207002F0ACFD0020F2BDA87B08B92120F2BD464800685D
:20A38C008047064602F0C4FD012804D002F0A8FD2968884205D140F20240FFF7AAFA0127F0
:20A3AC0000E000270020A873284602F0B5FD207800281CBF002F02F087FD3A490968304693
:20A3CC008847D5E71220F2BD017841F0030101700020704710B14B494978017000207047B1
:20A3EC00374810B500780C280C4605D11C49C8680969096C884703E00A2806D13C48807985
:20A40C00C0B2802818BF812801D17F2002E03A490978401A2070002010BD1B4B10B1012818
:20A42C0003D00CE0198000207047188810701888000A5070472090708120D070F3E7122003
:20A44C007047000004040021A30300216C030021110400215104002100C00021844C00203C
:20A46C00404700208C4C00206C4C0020B63F0050E81200507C4C002000D70100854C002019
:20A48C00EC490020744C0020984C0020BC4C0020964C0020F44E0020704600206C46002043
:20A4AC00944C002074460020C44C002004000940B94C00208C4A00208A4C0020BE4C0020FE
:20A4CC00B84C0020D04E0020284E0020204F0020A84E0020010000800DAD0100784D0020B2
:20A4EC0029417671404E0020DC4E0020844E0020C44E002002000080C04C0020244C0020A5
:20A50C00C0D90010B04C0020990400211905002179040021F0B5174C40216118C878022883
:20A52C0005D009480021016008498847F0BD256E074E3560600728432066276824600E485C
:20A54C00804727603560F0BD2C110440A56500002840044010B5074CA17D002905D10121D1
:20A56C00A175480204493E3988472068002800D0804710BD540200218B39000010B505497A
:20A58C00054A72B6C878012802DC01204870121D62B61047940200216D470000F8B51A4EFA
:20A5AC000546316B1948CC09E401002D11D01849097802290FD0007B044372B60120154F24
:20A5CC004002B847114820380088C109C90704D016E0C07AF0E7407BEEE70F493463CC61D4
:20A5EC00400AC0070CD001208003F16A002D01D0014300E081430846F16207494039486368
:20A60C000020B84762B6F8BD800200218800002196020021DF3C00004040044007490028E6
:20A62C0000D00420064A72B60978C90701D0105800E0802062B640B2704700006B02002149
:20A64C0058600440546100007F140200060005000F0008004800520080FF3F00000000002E
:20A66C00000000000000000000000000304000400140034007400F404F40CF40CF41CF4344
:20A68C00CF47CF4FCF3FCF2FCF1FCF0F000000000000000000000F00080000003F0000004C
:20A6AC0040003F000000040068000E00DC00060043001A000500000000000200000000004F
:20A6CC00000000000400C00000000400C000000007000000000000000000000000000000DF
:20A6EC000000000050C00091007070C00091007082312100319110B10070018101B100A170
:20A70C008231329110B101911110418141226340F106007051C0019130181039833108D054
:20A72C001831416F3100319110B1831414166F680070251050C00091F4C340C12014036F24
:20A74C00311041045082F0228440512622C082312100319110B163393110410482C08231F8
:20A76C002100319110B163393110A2C082312100319110B150101531051405920070536416
:20A78C0052C0311031066131C102566412C13110213971065131E1025664007051C00191FD
:20A7AC0001CCE2C05664536411C1C2C0566454B0007154A064B0F0800022B54011C122C1E6
:20A7CC00566451C00191E2C0823160820200329110B100C3C86853644012B09032B000C372
:20A7EC00CE6840C2D0688012B09032B00070536401C122C1566401C1C2C0566453829D64CF
:20A80C00C012B09032B00070536472C281C0566422C111C1566402C011C1566462C031C30F
:20A82C00566462C311C1566402C311C15664538253399D64E2C35B641122F84042C281C8D2
:20A84C00566452C211C1566472C2E1CE566402C281C8566402C201C85664B0C00C69007092
:20A86C00536442C201C8566452C211C0566472C2E1C0566402C001C1566462C001C3566482
:20A88C0022C101C1566462C301C1566402C301C1566453829D64007002C1623101C0A080EE
:20A8AC00001E3241101A34612010101A136F236E1116121634690070E092D08200223B450D
:20A8CC00C0B20070000000000000000000000000000000000000000000000000000000008A
:20A8EC00000000000000000000000000067305720B720E7250B00071818060B050A09280DB
:20A90C00F0EFF19202933A65412278458080F1C11004301601110114016C8B618C618D610E
:20A92C008E618F61906191619361956197619961706273629180F2C0210421318280422A1E
:20A94C001214321601112114016CA661C761AC617362A661C761AC6173629B619B619B61B3
:20A96C009B619B619B61AC649B61D5649B61E2649B610E659B612A659B618280E0DFF29215
:20A98C003A65B0B0A261B1B00673057230B05861D0CF3A6584C203C0C0C368649078509140
:20A9AC006078103161781014009250784031617810004031717810001092B07860928178A2
:20A9CC0021923078403141781000309210C0F0919B6154A0F0805022CF454080002266464F
:20A9EC00C76100C86091598150B0918041222E46C0CF3A65128282318239423928107764EA
:20AA0C001282F11212042F101F312F1440C120140D6F6D39DE10F4C34E0482C082312E003A
:20AA2C006D39A2C082312D001A828A392082803180390BC00B18AC7830824039021011C097
:20AA4C00013010C00118021882312100C126919103B013B063B053B0038239144180012297
:20AA6C006646B481C491D5819518B51C1C4EC51C544A6591F08010220C422C623D9110B1D4
:20AA8C003E9110B165910F925981F914AB18BC10F0805022C74110222C460C62B0CF3A65F3
:20AAAC0063B030820010F2C02004021011C0013010C00118021882312100C12691919191C9
:20AACC0013B003B063B053B064B054B0007141800122664663B064B0F0805022C741B18182
:20AAEC00C191D1819118619131B04462128282318239423928107764598105825914208284
:20AB0C000BC00B18AC7880C0007163B0626A0C62018262818231823DA0EFF19202933A65FB
:20AB2C0003A09B61A28077649B6150B000719B61704702480068C06B004700005047002072
:20AB4C0070B50021FF225548554B09E0182486684C43A61900257570491C85686255C9B256
:20AB6C001C78A41CA142F1DB002182700180416070BD10B50023494A9168182404FB0311A1
:20AB8C004C78D4B90C78FF2C02D05468A14214D0087000234B604B6101234B705378034372
:20ABAC00537013785B1C1370DBB2012B1CBF8028402800D15160084610BD394909785B1C86
:20ABCC00DBB2891C8B42D7DB002010BD10B5334A9268002118234B439C5C844202D1981864
:20ABEC00407810BD00F017F8F4DB002010BD10B52A4A9268002118234B439C5C844202BF6D
:20AC0C009B185B78012B01D1012010BD00F003F8F1DB002010BD224B1B78491CC9B29B1C7B
:20AC2C009942704710B51D498B68002218215143CC5C844202BFC9184C78012C01D10846C8
:20AC4C0010BD17490978521CD2B2891C8A42EDDB002010BD1CB50446104844606069010041
:20AC6C0018BF80476068017B01F00F0102290CBF8068FFF75EFFA0604FF0FF3109480A4B9F
:20AC8C00CDE9000103226168084C094824680068A468A0470749088013BD0000F44E00206D
:20ACAC00BC4C0020020480800DAD0100504700204C470020484700200120704700B583B0C6
:20ACCC000820ADF800001E2000F00CF802F010F907BD00B583B00820ADF800001F2000F0C6
:20ACEC0001F807BDADF802004FF480300249096801906846084700006C460020704700001E
:20AD0C0010B51446200248BF00F0BDF814F0030018BF00F00FF8002C44BFBDE8104000F051
:20AD2C0001B810BD80B58220FEF749FEBDE80140FEF744BE59495A4B48881B78594A03B988
:20AD4C007047F0B55B1E032B83B008D9083B012B4DD99B1E012B67D99B1E68D082E0524829
:20AD6C00524D534901604FF4A0536E8851491680022E41F2024438D94FF48067F61B1AD0F0
:20AD8C00361F012E21D94FF47F77F61B1FD04FF44067F61B0FD0B61E012E0CD9361F0AD0FF
:20ADAC00761E012E11D940F2F937F61B012E1CD9361F18D056E01380016001213E480078BC
:20ADCC0003B0BDE8F04000F03CBE3C49F4E73C4A927C012A03D16C806C836C86ECE76B8077
:20ADEC006B836B86E8E787203DE083203BE0108040F2044290421CBF41F20842904236D00D
:20AE0C0041F60402904210D12E4C2F4A24682F4800684FF0FF33CDE90023A4682C4B0322E6
:20AE2C00A0472C490880F7BD108085201BE0022810800DD940F20442801A18D040F6FC7200
:20AE4C00801A05D0083812D04FF47F72801AECD1887B801CC0B2B528A8BF662088730020D4
:20AE6C004880F7BD8420BDE8FE40FEF7A8BDF7BD1948012101700A490978092904BF0021D7
:20AE8C0001707047704706480078042804D9801F1CBF8620FEF793BD70470000284E002046
:20AEAC00B84C00200A4F0020C44C0020244C0020E1D9001035960100844C002051CD001075
:20AECC00EC49002050470020020000804C4700200DAD0100484700200720024010B5040089
:20AEEC002148047000202149087000202049087000202049087000201F49087000201F49DD
:20AF0C000870FEF783F800201D49087010BD70B504000D00280416D51348007800F0B0FCB6
:20AF2C000600002E0BD03078032802D03078012802D1F06800F024FC300000F072FD95F42D
:20AF4C00004080B200E0002070BD0849087070470749087070470749087070470649087001
:20AF6C0070470649087070472046002021460020224600202346002024460020254600205D
:20AF8C00284F00201348B0B5B0F1FF3F01D001F0EFFE114D1148A84210D01148114CA042A7
:20AFAC000CD0001BC71054F8040B10F8011B55F8212054F8041B90477F1EF4D10A4D0B4C58
:20AFCC00A54205D002E054F8040B8047A542FAD1B0BDC046FFFFFFFF38D7010044D7010058
:20AFEC0054D7010044D70100000000000000000030B502FB01F403FB00444FF00005E2FBC3
:20B00C0000542146284630BD002A4AD05FEA000C8B071CD1830722D1102A08D370B4103AF6
:20B02C0078C978C0103AFBD270BC103238D0042A2CD3082A05D30C2A24BF08C908C008C944
:20B04C0008C008C908C092072AD0920F22E00B780370491C401C521E22D08B07F7D1C30710
:20B06C0014D18307D8D0121F12D308C903801B0C4380001D121FF8D20AE008C903701B0AEE
:20B08C0043701B0A83701B0AC370001D121FF4D2121D05D00B780370491C401C521EF9D178
:20B0AC0060467047002213460A46194671B510F0030F0BD0002A82BF00F8011BB2F10102C5
:20B0CC0010F0030FF6D1002A08BF71BD11F0FF0141EA0121042A18D341EA0141082A0FD384
:20B0EC000E46102A08D30C460D46B2F10F0312F00F0272C0103BFCD812F0080F18BF42C02B
:20B10C0012F0040F18BF40F8041B12F0020F18BF20F8021B12F0010F18BF017071BD2DE923
:20B12C00F0411C4615468C4208BF854282BF00230022E5E0002C08BF002D0AD100290EBF7D
:20B14C0000286FF000006FF0000100F0E1F8BDE8F0815FF000085FF0000E002C08BF8D42A7
:20B16C009CBF2C1C0025070C47EA01470E0CB44208BFBD429EBF5FEA044444EA15445FEADB
:20B18C000545070A47EA01670E0AB44208BFBD429EBF5FEA042444EA15645FEA05254708A4
:20B1AC0047EAC1774E08B44208BFBD4200F29380870847EA81778E08B44208BFBD427CD8A5
:20B1CC00C70847EA4177CE08B44208BFBD4266D8070947EA01770E09B44208BFBD4250D827
:20B1EC00470947EAC1674E09B44208BFBD423AD8870947EA81678E09B44208BFBD4224D87D
:20B20C00C70947EA4167CE09B44208BFBD420DD8E60146EA5566EF01B14208BFB84201D3B7
:20B22C00C01BB14158EB08085EEB0E0EA60146EA95664FEA8517B14208BFB84201D3C01B73
:20B24C00B14158EB08084EEB0E0E660146EAD5666F01B14208BFB84201D3C01BB14158EB6E
:20B26C0008084EEB0E0E260146EA15762F01B14208BFB84201D3C01BB14158EB08085EEB5A
:20B28C000E0EE60046EA5576EF00B14208BFB84201D3C01BB14158EB08084EEB0E0EA60013
:20B2AC0046EA9576AF00B14208BFB84201D3C01BB14158EB08084EEB0E0E660046EAD576BA
:20B2CC006F00B14208BFB84201D3C01BB14158EB08085EEB0E0EA14208BFA84201D3401B23
:20B2EC00A14158EB08085EEB0E0EA34208BFAA423EBF2D0A45EA0465240A89D37346424679
:20B30C001E4617460B46024631463846BDE8F0817047EFF3108062B6704700207047EFF30B
:20B32C00108072B6704700207047000002468A48006800E0006828B103899942FAD1837AE9
:20B34C009A42F7D1704708B1002101817047F8B5824D064628680C468047074621463046D8
:20B36C00FFF7E4FF002814BF446800246968384688472046F8BD2DE9F041794C06466068C4
:20B38C0017460D468047804629463A46304600F022F8A168074640468847002F14BF002028
:20B3AC000820BDE8F081F8B56D4C0646241D20680D468047074629463046FFF7B7FF051CAF
:20B3CC0001D0FFF7C0FF616838468847002D14BF00200620F8BDF8B514460646FFF7A6FFDC
:20B3EC000D46002818BF446016D1102001F0C7FB59490F68002808BF00200DD086720581FE
:20B40C00446000220260C26017B90F4603E00F4639680029FBD13860F8BD2DE9F041514DB1
:20B42C0007462D1D286816460C4680478046214632463846FFF7CFFF041C18BFE66069686F
:20B44C0040468847002C14BF00200820BDE8F08145490020086070473F480068002808BF83
:20B46C00002107D041494268914288BF111C00680028F8D1084670472DE9F84F3C4D0446BF
:20B48C002D1D28688047344E0146321D106820181060084669688847306800285AD04FF0B0
:20B4AC0000080746B146C2462868804756461FFAA4F3834683B95FFA94F36BB93979E0B23C
:20B4CC00884204DD79682046884209D20AE03879E1B2401A387108E079682046884201D3CB
:20B4EC00314601E07968091A7960B88878B9FB8853B9FB6843B13B8933B1B87A194600F08B
:20B50C00A0FAF8687860B88808B9FB880BB13B896BB9B8F1000F04BF3868C9F8000003D076
:20B52C003868C8F8000038683E46074601E0B8463F6869685846884756B1B08828B9F088D2
:20B54C0018B9B07A318900F07CFA304601F00AFB002FA9D1BDE8F88F6446002070460020E3
:20B56C006C4600206C460020684600208EC2F5286C4600200649086820F4806008600004EF
:20B58C00000C40F480300860024848607047C046148002400401010008B5FFF7EBFF1149C5
:20B5AC000120086010490020086008BD0F480C38006870470D4A08B51068C00A01D2FFF777
:20B5CC00EBFFA2F10C0000684008FAD30848006841680220884704490A6882420CBF05486C
:20B5EC00086008BDA80250427846002014800240CC010010EFBEADDE1849042824D005285F
:20B60C001DD0062816D00F280FD0102821D311492F2805D9303801220B468240181D17E082
:20B62C00103801228240084612E00B48026822F002020DE00846026822F4802208E008462B
:20B64C00026822F4003203E00846026822F480320260704780E100E010E000E024ED00E0AE
:20B66C00144904281ED0052818D0062812D00F280BD010281AD310492F2887BF30387C39D8
:20B68C0010388039012282400FE009490A6842F002020AE00A6842F4802206E00A6842F40D
:20B6AC00003202E00A6842F480320A607047C04610E000E024ED00E080E100E010B5FFF72C
:20B6CC002EFE002400B10124204610BD10B5FFF720FE002400B10124204610BDADF1080D4C
:20B6EC0001208DF800009DF800000028FBD102B07047084808B580470948074902680A605D
:20B70C0042684A60806888600448C860A830086108BDC04601500010E848002010D10100E6
:20B72C006C4600207047704708B50221684601F0F7FBBDF8000008BD01462F48006800E0CC
:20B74C00006840B100F108028A42F9D88288821808328A42F4D3704710B503460C46FFF76E
:20B76C00EBFF58B1191B00F108021C1BA24205D8828880180830884228BF0B1C184610BDC6
:20B78C00F8B51E4D0446286880471B4906460868A8B100270A4600F10801A14204D8818832
:20B7AC0041180831A14204D2074600680028F2D105E007B917460168396001F0D3F9696800
:20B7CC0030468847F8BDF8B50D4C0546241D20688047064605F1080080B201F0D0F9071C29
:20B7EC0005D00549BD8008680F60386008376168304688473846F8BD3C470020704600206D
:20B80C006C46002010B5041C05D004F10C0080B201F0B5F908B9002010BD00210160048109
:20B82C00FF2383720C3010BDBC4800787047FFF73DBC034610461A4628B111F8013B401E3F
:20B84C0002F8013BF9D11046704770B5BD4C054620680E468047B14908310A68AA4219BF4A
:20B86C0055F80C1C46F80C1C55F80C2C0A60FF2605F8026C002145F80C1C6168884770BD17
:20B88C002DE9F041AF4D0646286880478046C048006800273C46844212D010F8021C8E4239
:20B8AC0008D134B160B130464FF4004100F0C9F80BE0044604B9074650F80C0C0028ECD17E
:20B8CC0030464FF4004100F007F91CB120463946FFF7BBFF6968404688472046BDE8F0816E
:20B8EC0038B5C34C0546206880470021A84A45F80C1C116811B9156006E0114651F80C2CB8
:20B90C00002AFAD141F80C5C6168884738BD38B5B74C0546241F60688047804A916845F8EB
:20B92C000C1CA1689560884738BD70B5164605460C1C08BF052525D035F07F0001D000F0D2
:20B94C0003F9052DA8BF032507DA54F80C0C18B914F8020CFF2804D00525204600F061F81A
:20B96C0010E0012E04F8025C03D02046FFF7B8FF02E02046FFF7CBFF28464FF4004100F072
:20B98C0060F80025284670BD10B580F08004022C01DB00F0D9F8C548005D10BD00B5ADF175
:20B9AC00140D8DF804000823ADF800308DF8061000208DF808000623BB4803920168ADF8BA
:20B9CC0002306846884705B000BD70B502460D4632F07F0004D110460022FFF7A6FF70BDC4
:20B9EC00FFF722FF4D498C78AE1EFF2802D0896A40184479FF2C02D100F0A6F80DE01046EE
:20BA0C00FFF7C2FF01462A46FF2030702046FFF7C5FF20B1284600F004F8012070BD002034
:20BA2C0070BD08B5002808BF052009D010F8021CFF2918BF042003D10C3801F093F8002026
:20BA4C0008BDF8B506460C4636F07F0015D1052E11DABD4D68688047BC49096831F81620AB
:20BA6C00144321F81640A968884790480D30006800F047F82EE00320F8BD0420FFF7C2FEA8
:20BA8C00071C08BF042026D04FF6FF7038807C80FFF7CAFE21498C78BD1EFF2802D0896A3B
:20BAAC0040184479FF2C06D13846FFF7BAFF00F04BF80120F8BD3046FFF766FF01463A4695
:20BACC00FF2028702046FFF769FF18B13846FFF7A8FFEEE70020F8BD70B506460D46052E5A
:20BAEC000DDA9C4C6068804798490A6832F81610A94322F81610A1688847002070BD0320C5
:20BB0C0070BD0EB5082101909248ADF800100B21ADF802100168684688470EBD28480020BC
:20BB2C0070B58C4C0546241D20688047884906464869A84202D10868FFF7E3FF616830460F
:20BB4C00884770BD7046002008B5052000F0FCF90820ADF800000C20ADF80200C948016826
:20BB6C006846884708BDC84A08B5002112F8013FFF2B04D1107041F08001C8B208BD9842F3
:20BB8C00F9D0491C0229F1D3FFF7DEFFFF2008BD3048002010B504466088002818BF6FF0D8
:20BBAC00010008D1A079FFF7DEFFE071FF280CBF6FF00300002010BD10B50A2000F0DFFF64
:20BBCC00C74CA062A06AFF210A22FFF730FEFF210222E01CFFF72BFE10BDC24A12681154B3
:20BBEC00121851717047BF4A1268801841717047704600200EB50820ADF800001220ADF8D5
:20BC0C000200C14801686846884701980EBD0EB50820ADF800001420ADF80200BA480168ED
:20BC2C006846884701980EBD0EB50820ADF800001520ADF80200B448016868468847019830
:20BC4C000EBD10B5A74C0020283CA060FFF700FC00F07DFFFFF7B0FF01F000F8FFF7CAFF26
:20BC6C006061FFF7D4FFA061FFF7DEFF801EE06110BD10B59B4C0821ADF1180DADF8001061
:20BC8C00283C04901B21ADF80210206A029001210191A5499C4803910168684688470299F6
:20BCAC00216206B010BDC0466C4600202B4800207FB506460820ADF800000720ADF80200EC
:20BCCC009A480D4601681446684688479DF8041031709DF8061029700299216000907FBD6D
:20BCEC00804909680022491E11F8013F984208BFD0B203D0521C052AF6D3FF2070470EB537
:20BD0C00082101908948ADF800101C21ADF802100168684688470EBD10B5ADF1180D019019
:20BD2C0081486F4C0390206A0491082202907F48ADF8002013220168ADF802206846884797
:20BD4C000298206206B010BD6C4600207C460020384800206C4600202DE9FE43FFF77CFB4E
:20BD6C00FFF748FF5E4DAE696C69B6F57A7F13D04FF47A78001B00234246A6FB0001FFF7C9
:20BD8C00CEF9074600234246FFF732F932460023FFF7C5F9001900E0071B6861384600F016
:20BDAC00CFFF00241CE09DF80500FFF799FF0646FF2E13D0009810F8080CFFF7D4FE0099F0
:20BDCC0011F8062C012A03D0022A08BF887000E0087000993046FFF7F8FD01E0FFF7B4FE58
:20BDEC0001A80DF105016A46FFF762FF0028DAD04F480168804631F814704E4E27B9641C42
:20BE0C00E4B2052CF7DB1FE0052C1DDA30688047D8F800106700002231F80790CA537168D8
:20BE2C008847454850F824202C704946204690470446FF20287030688047D8F800107A5A92
:20BE4C0014437C5271688847FFF706FB0746B7F1FF3F14D007B9394FE869B84238BF071C4E
:20BE6C00306880470446286AFFF749FF696A3846491C6962FFF750FF716820468847BDE8C4
:20BE8C00FE83C0466C4600202A4800200EB50820ADF800000A20ADF802004FF0FF3001904B
:20BEAC0022480168684688470EBD254808B50068FFF7DFFE08B1FFF747FEFFF74DFFFFF7CA
:20BECC00E5FFFAE70346104641181A46491E28B111F80139401E02F8013BF9D1104670474B
:20BEEC00284800205048002010B5401E491E4AB111F8013F10F8014FA34218BF002002D119
:20BF0C00521EF5D1012010BD6C46002028B142B1401E10F8013F994201D000207047521EBA
:20BF2C00F7D101207047C0462DBB01006C4600207C46002070460020ECCF01008EC2F528B3
:20BF4C004C48002070477047084908B510B90A78012A03D0C91C0A680021904708BD00B98F
:20BF6C0004480349486001234B707047214800202048002053BF01002DE9F0470C46804656
:20BF8C00E00BC00318BF84F4004437D1002C08BF002034D0DFF88890D9F8000080478246E6
:20BFAC001E48068800250122294602FA01F73C4203D1491C0F29F8DB1BE0CB004146F501D1
:20BFCC00CA01001DA2EBC102A5EBC6019E1A8D1A8A1981585D194619BDB211B180184068A5
:20BFEC00884740462946FFF7B2F910B9002030607060D9F80410504688476C40A0B2BDE89A
:20C00C00F087014605480288FF2A05D101807822001D0021FFF70BBC7047C04654480020F1
:20C02C007046002038B51546024690790024001F15D00C3810D0C01E01280BD9801E0ED0D2
:20C04C00801E18BF01240CD1A74A0A200D461070012005E0022404E0107AFCF719FD204666
:20C06C002870204638BD012070472DE9F84308AF3E788146984615460C4606F10C0080B2A4
:20C08C00FFF7C0FB071C16D08020387087F8018040F27F637B809449BC803246BD7107F1CC
:20C0AC000C00FE7107F10C03BB60FFF7C2FB48463946FFF78AFCBDE8F8832DE9FE430446DA
:20C0CC0000250120A788A6798DF8055094F802808DF80400391C08D0491E08D120460DF17E
:20C0EC00050101AAFFF79EFF01E0FFF7BCFF81462046FFF796FC9DF8040040B19DF8050085
:20C10C00394632464B4600904046FFF7AEFF2846BDE8FE8302460023921E012A09D9921E66
:20C12C0004D0802807DB902805DA05E0042902D102E0102900D002231846704758B16B4937
:20C14C00922201606A4B827119888180012303814381002070470220704770B5401E15467A
:20C16C000C4613D0401E06D0401E2ED0401E28D0401E18D015E0207A617A0546FFF7CAFFDE
:20C18C0018BBE268284600F0DFFB70BD207A617A0546FFF7BFFFC0B9E268284600F0FCFB85
:20C1AC0070BD012070BDFFF705FA04232B70B549C871020A0A72060C4E72040E8C72002080
:20C1CC0070BDA068FFF7BAFF70BD022070BDBFB5074608461446394631290CDC31291ED081
:20C1EC00002961D0891F59D0491E4FD0491E49D028392FD039E0333940D0491E06D0491E69
:20C20C0039D0491E35D0481E31D02EE0007AFCF7E5F9002803902CD0042203A914E04FF61B
:20C22C00FF750089ADF80850FF2807DA262805D0282803DAFBF711FFADF80800BDF8080034
:20C24C00854216D0022202A927482270FFF7F1FA002033E0018926290BD0282909DA0A4609
:20C26C0041891046FBF7ECFE28E0012026E000202070022022E0FCF7BBF91FE08068FCF732
:20C28C0070F91BE0007AFCF746F917E0047A417A827AC3682046FCF707F90FE0027AC1683E
:20C2AC001046FCF7B5F809E00169009141690191027AC368417A104600F0F2FB0090BFBDBB
:20C2CC0010B50446C4F3C210001F08D0401E18BF012008D104F07F00FFF73FFF10BD04F02C
:20C2EC007F00FFF774FF10BD2F4600200002020030D7010042F21103834233DB834200F00C
:20C30C009D8041F20902824219DB824200F0A880A0F60140002800F0B080801E00F0AB804A
:20C32C00603800F0A580A0F29E30002800F09E80401E00F09980401E00F094803CE041F296
:20C34C000542801A00F08980A0F6FC30002800F08180801E7CD0001F78D0083874D0401EE9
:20C36C0070D029E04FF6014282420FDB82424DD05B1CC01A5ED0401F58D0401F54D0401E6A
:20C38C004FD0401E47D0401E43D015E0121D801A09280AD90C381FD0801F19D0001F13D0FD
:20C3AC00401E0ED0401E09D006E0DFE800F02B280524221F1D1A051801207047087AFDF702
:20C3CC008FB80889FDF79FB8087A498900F0BCBD087A498900F0BCBD087A00F0BDBD00F0D8
:20C3EC00AFBD886800F0BCBD00F0A6BD087A00F0BBBD00F0BDBD087A897A00F0BDBD8868E6
:20C40C0000F096BD8868C96800F0BABD087A00F0BBBD00F0BDBD087A4B7A8A7A1946FDF753
:20C42C0039B8087AFDF73FB800F0B6BD8868C96800F0B6BD087AC96800F0B6BD087AC968E2
:20C44C0000F0B6BD00F0B8BD00F0BABD00F0BCBD00F06ABD8868FDF768B80889FDF7ACB834
:20C46C0000F0F2BC00F0B4BDFCF7F1BFFDF778B88868FDF721B8FCF7D9BF886800F0ACBD59
:20C48C007047C046284600202DE9FE430446012000253F218DF80400A679A778A0888DF88A
:20C4AC0005508046B1EBA82F02D1C8F3C21119B92146FFF71FFF05E021460DF1050201AB37
:20C4CC00FFF7FEFE81462046FFF7ABFA9DF8040040B19DF80500414632464B4600903846D4
:20C4EC00FFF7C3FD2846BDE8FE83F8B50C46E00BC00308BF002027D017480078FFF7C0F9D5
:20C50C00071C1ED0124D2968012649B1B1F1FF3F06D010480078FFF758FA4FF0FF30286029
:20C52C003878813805D0401E07D13846FFF7C5FD02E03846FFF7A8FF064616B13846FFF7C1
:20C54C0070FA84F40044A0B2F8BD03490870704754470020204600202846002013491D23BC
:20C56C00090BC9B291FBF3F25A43891A00EB013000F5E8307047F8B517460D46FFF7EEFF4F
:20C58C000B4C06462068804703E016F8011B05F8011B39464A1E002997B2F6D161688847BF
:20C5AC00F8BD0B460146184600F04CBA00E001007046002038B50546BA480088001F84B200
:20C5CC00042C1EDB204669460422FFF7D4FFBDF80000854204D19DF80200241AA0B238BDB5
:20C5EC00BDF80210C80BC00307D1081D844203DA0020FFF7A9FC04E0641A241FA4B2042C4C
:20C60C00E0DA002038BD10B500F012FAC4B24CB1CB4800684268CB480021904700F008FAE9
:20C62C000028FBD1204610BD08B528B1CE4800684268C4480121904708BD7CB516460D465F
:20C64C00044602E0241D2D1DA4B23046411ECEB278B1204669460422FFF78DFF6846294669
:20C66C00042200F0FDF90028ECD0CA490120487008707CBD2DE9F04714460F460646FFF7E3
:20C68C006DFFCD4D8046686880478246FFF7BBFF8146A20039464046FFF783FF4846FFF7C9
:20C6AC00C3FF304622463946FFF7C7FFA96850468847BDE8F08708B50020012269460090C2
:20C6CC00FFF7D8FF08BD001FADF1080D80B2042814DBB0F5805F11DA00F1885212686B4638
:20C6EC001A60BDF80020914208BF012007D0BDF80220801A001F80B20428EADA002002B0C9
:20C70C007047F8B5AC4C241D206880470546FFF77AFF06460020FFF721FF00F0B3F90746FC
:20C72C003046FFF781FF1FB19A49012048700870616828468847F8BD08B54FF4801001228F
:20C74C00694600900020FFF795FF08BD2DE9FC41FFF759FF8046534801880027081F84B210
:20C76C006FF00300401880B2042841DBFF254FF6FF76204669460422FFF7FDFEBDF80000BA
:20C78C0086421ED0E8B1C10BC90317D1854215D0C1B23846FFF797FF0D4678B9BDF802203A
:20C7AC00A01A07F1885180B2121D92B2FFF7E3FEBDF802003F183F1DBFB214E0BDF80200E0
:20C7CC0011E0BDF8020003466FF30E0363B9011D8C4208DA0020FFF7B7FB4046FFF724FF98
:20C7EC000020BDE8FC81241A241FA4B2042CC0DAFFF787FF3FB18B484FF088513A46FFF77D
:20C80C00D0FEFFF799FF4046FFF70EFF614A507800281CBF0020011C03D1C7F58054391DBA
:20C82C00A0B25180BDE8FC812DE9FC4104461D48068890460D46012269464FF6FF70ADF8C3
:20C84C00000045F40040ADF80200A81987B23846FFF710FFBDF80200012269466FF3DF3035
:20C86C00ADF802003846FFF705FFA8104146C2B23046FFF7FFFE44F40044012238466946A5
:20C88C00ADF80040FFF7F6FEBDF80000012269466FF3DF30ADF800003846FFF7EBFEBDE81E
:20C8AC00FC81C046DE48002003B42DE9F047394D08AF4FF0000998461646ADF1080DB878FD
:20C8CC0085F801908246FFF775FE071C14D04C4686B1384669460122FFF74DFE18F8040098
:20C8EC009DF80010884205D1641C7F1CE4B2BFB2A642EEDCA6421CD06888F61C4FF6FC7488
:20C90C0040F6FC7134402018814203DAFFF7D3FEFFF71CFF504621464246FFF785FF687865
:20C92C006988002818BF814603D10919091D88B26880484602B0BDE8F04702B07047C0466B
:20C94C00D8010010004003400EB51346ADF802000020ADF804000A468DF800009DE8030076
:20C96C00FFF7A2FF0EBDC046D801001003B4B0B504AFB8781D461446FFF71CFE28B122464D
:20C98C002946FFF7F8FD002000E00120BDE8B04002B07047DC4800200EB51346ADF802000B
:20C9AC000020ADF804000A468DF800009DE80300FFF7DCFF0EBDC0466C4600201CB540F6CA
:20C9CC00FC74204669460422FFF7D5FD0098B0F1FF3F03D1241FA4B2042CF2DA1248241D5D
:20C9EC0004801CBD1CB5114C00200422607069462070FFF7C0FD0098B0F5801F0CD020B907
:20CA0C00FFF7DCFFFFF7A2FE08E0FFF77AFEFFF793FE0420608001E0FFF7D0FF60781CBD6B
:20CA2C00FFF7E0BF04E00100DE480020DC4800200348006801092CBF042000F00300704770
:20CA4C000040034008B5054B303B1B689B699847014A0021116008BD84046042D8010010B4
:20CA6C0010B5002A08BF00200AD0401E491E11F8014F10F8013F9C4201D1521EF7D1181B79
:20CA8C0010BD0000054908B53039096849698847014A0021116008BD84046042D8010010A2
:20CAAC0038B501291D4609D1FBF7DFFA041C06D12846FBF7FFFAFBF7A5FD00E002242046FB
:20CACC0038BD00000EB508218DF804002348ADF800101721001FADF80210016868468847CC
:20CAEC009DF805000EBD2DE9F84307468846052F02DA1B4D287810B90120BDE8F883174ED2
:20CB0C0030688047814668880124B8F1000F0ED1214603464FF6FF72B9404A401040688016
:20CB2C007BB170B90020FFF7CDFF044609E018B92046FFF7C7FF68882146B940084380B2BF
:20CB4C0068807168484688472046BDE8F883044800214180012101707047C04670460020D1
:20CB6C00D84800200EB5082101900D48ADF800100521ADF802100168684688470EBD0EB591
:20CB8C00082101900748ADF800100421ADF80210016868468847002814BF002002980EBD89
:20CBAC006C4600206C460020074808B580470848064902680A6042684A608068886005480E
:20CBCC00C8601830086108BD014C01102C4F00206C46002004D00100A0B10B4902780A7072
:20CBEC0042784A70827843688A70C2784B60CA7083688B60C3684269CB60436A10684B614F
:20CC0C00FFF7ADB97047C0462447002030B51546ADF1140D0822ADF804001C460291354820
:20CC2C00ADF8002000220168ADF80220684688479DF80C1029700499216005B030BD08B58D
:20CC4C000520FFF781F90820ADF800000C20ADF80200284801686846884708BD0EB50A208B
:20CC6C00FFF78DFF2449086008680A220021FEF7DEFD0020FCF7F3FE0120FEF72FF9022060
:20CC8C00FFF7BFF90320FBF706FF0420FFF75DFC01AA6B4600211020FFF7B8FF9DF804104A
:20CCAC000420FEF79AFF00239DF804101846FEF79AFF5B1C042BF7DB0EBD38B5FFF78CFF4D
:20CCCC00104B0E495020243B5A1C1033FFF79EFF08B1FFF7B4FF0A4C606880470546FFF7F3
:20CCEC009FFEFEF7AEFFA16828468847FFF7DDF838BDC0466C4600207C460020A1BB0100CC
:20CD0C006C4600204C48002070B5174C0546241D20688047134B19685E686D18B5F57A7F51
:20CD2C000AD34FF47A72B5FBF2F189195960B5FBF2F606FB02F16D1A1D606168884770BD98
:20CD4C0038B50A4C0546206820F0020020602846FFF7DAFF2846FEF78FFB206840F002003B
:20CD6C00206038BDD04800206C46002010E000E0F8B506460F4D104F7388002417E0A000EE
:20CD8C0000EBC400321851689068D26852B9AF420BD00A7855F822200346491C0846194660
:20CDAC00904701E0FEF730F97388641CA4B2A342E5DCF8BD38D7010044D70100D0F803204E
:20CDCC0008460021FEF772B92DE9F041054615F8017B90460E461CE0B8F1000F05F10105C3
:20CDEC000BD0FF2C09D8022015F8011B401E41EA0424F9D101E0042C02D315F8011B00E08B
:20CE0C00394630462246FEF751F9A61901E006F8010B15F8010B8742F9D115F8014B002C8F
:20CE2C00E9D115F8010B2C7800022418D4D1BDE8F0810122FFF7C8BFD0F80320C31D0846BD
:20CE4C001946FEF7E1B80000DFF800F065970010DFF800F049980010DFF800F0C956001058
:20CE6C00DFF800F0A1980010DFF800F0BD980010DFF800F0D9980010DFF800F06D98001046
:20CE8C00DFF800F0D5570010DFF800F0B1AD0010DFF800F015830110DFF800F091830110F2
:20CEAC00DFF800F0818C0010DFF800F0DD8A0010DFF800F0D5700010DFF800F09D5800105C
:20CECC00DFF800F00DB50010DFF800F035A30010DFF800F019870010DFF800F0F58B001030
:20CEEC00DFF800F03DAC0010DFF800F089D10010DFF800F0C9B40010DFF800F0195700109A
:20CF0C00DFF800F071940010DFF800F0E5730010DFF800F0E1AC0010DFF800F0EDAB001027
:20CF2C00DFF800F001580010DFF800F029980010DFF800F02D9E0010DFF800F0ED9E001019
:20CF4C00DFF800F0699F0010DFF800F009A10010DFF800F0F1A00010DFF800F0D19F0010B6
:20CF6C00DFF800F00D9F0010DFF800F0CD9E0010DFF800F0AD9E0010DFF800F08D9E0010BC
:20CF8C00DFF800F0D19D0010DFF800F0099D0010DFF800F08D9C0010DFF800F0159C00103B
:20CFAC00DFF800F0F59A0010DFF800F0319A0010DFF800F0159A0010DFF800F0F99900106E
:20CFCC00DFF800F0C9990010DFF800F0F5980010DFF800F03D970010DFF800F07195001020
:20CFEC000B9C01001BAF010085BF0100AB8A0100F7C40100050000008BCB010071CB0100E2
:20D00C008DB701003FB801003BB8010051BF0100E9B60100E9B60100E9B60100E9B6010042
:20D02C00E9B60100E9B60100E9B60100E9B60100E9B60100E9B60100E9B60100E9B60100E4
:20D04C00E9B60100E9B601003B8F0100158301103D83011069830110918301109D8F0100F0
:20D06C00B983011085840110A9840110C5840110CD840110D1840110D5840110F9840110E5
:20D08C004985011051850110E185011069860110756901107969011085690110996A011052
:20D0AC00F56A0110796B0110296C0110456C0110796C0110056D0110296D0110A16D011058
:20D0CC00C96D01108D6E0110A16E0110D56E011065730110FD7401107D760110397801104C
:20D0EC0095780110F578011071770110ED750110098B0110998A0110C58A0110198A01102F
:20D10C00358A01108BCB010071CB0100F3CA010011B80100D7B901004FBA01003FB8010084
:20D12C003BB80100D3B701008DB7010065B7010083B30100B3B30100E5BA010031B70100DB
:20D14C00D9B60100C9B601006DB6010005B6010051BF0100A5B50100C1B50100E9B6010050
:20D16C00C5AC0100E9B60100E9B60100E9B60100E9B60100C9AC0100DFAC0100E9B601000F
:20D18C0009AD0100E9B60100204600202346002022460020244600202146002000D70100AC
:20D1AC00E9B60100E9B60100E9B60100DD8A0010A18B0010E9B60100E9B60100F1A00010EF
:20D1CC0009A10010799D0010E9B60100AD9D0010D19D001013950100E9B60100699F00108A
:20D1EC00ED9E001095A00010D1A00010F19F0010AD9E0010CD9E00108D9E0010E9B6010071
:20D20C00E9B60100E9B60100E9B60100E9B60100ED940100B19F00100D9F0010E9B6010044
:20D22C00819F00102D9E0010D19F0010D59C0010E9B60100E9B60100099D0010F58B001050
:20D24C00E9B60100E9B60100159A0010F9990010E9B60100E9B60100E9B60100F59A0010A2
:20D26C00E9B60100E9B60100519B0010F59800106F940100E9B6010029980010E9B60100B4
:20D28C00159C0010C9990010B3940100319A0010A1980010D9980010E9B6010037950100F5
:20D2AC00E9B6010049980010E9B60100E9B60100BD980010E9B601008D9C0010A19401001D
:20D2CC00E9B60100659700105B9401003D9700106D950100E9B60100C5950100E9B6010024
:20D2EC0039940100CDD70010818C0010598C0010318D0010E9B60100E9B60100719500106A
:20D30C00FD93010085930100A194001039570010818D0010E9B6010019570010E9B6010094
:20D32C00E9B60100E9B60100AD8E0010E9B60100E9B60100E9B60100BBA101007194001004
:20D34C00E5A00100759F0100E9B601000590001039B60010F5B50010E9B60100E9B60100E8
:20D36C00E9B60100E9B60100E9B60100E9B60100E9B601000DB50010E9B60100C9B4001082
:20D38C008DB50010EDB400102570001027A401007D6B0010E9B60100816B0010856B001079
:20D3AC00A1700010E9B601004F9F01001D700010ADA2001021700010496F0010979D010017
:20D3CC00B99E0100359E0100E9B60100E9B60100E9B60100E9B60100E9B6010059A20010EA
:20D3EC00D5700010FD6E0010016E0010E9B60100F96E0010299D01007D9D0100D96A001086
:20D40C0001A20010E9B60100E9B601004F9D010011A20010E9B60100E9B60100E9B601007D
:20D42C00E9B60100E9B60100D55700106B9A0100B95700100B9C010001580010E9B601008D
:20D44C00F5570010D5A1001005610010C9560010E9B60100795800109D580010E9B6010013
:20D46C00E9B60100E9B60100E1910010E9B60100D5A30100E9B60100A15700106557001051
:20D48C00A79C0100E9B6010001A30100895F001027A20100E9560010E9B60100E9B60100A6
:20D4AC002D610010E9B60100E9B60100E9B60100D9D20010ADD10010F5D1001025D40010BA
:20D4CC006DD200103DD2001029D2001089D100106DD30010DDD30010FBAB010051CD001078
:20D4EC00E9B6010035960100E9B601007FAB0100E9B60100E9B60100E9B6010089980100E7
:20D50C00E9720010E9B60100E9B60100E9B60100E9B60100E9B60100E9B60100E9B6010034
:20D52C00E9B60100E9B60100E5720010ED720010E9B60100E9B60100E9B60100E9B6010049
:20D54C00E9B60100E9B6010019870010F186001039A9001095A80010EDAB0010E9B60100C1
:20D56C00E9B60100A9AC0010E9B601003DAC00103FAB0100E9B60100E9B60100E9B6010036
:20D58C00E1AC0010E9B6010031AC0100D9AB010075980100E9B60100E9B60100FF980100F9
:20D5AC00819701003DAB0100E9B60100E9B60100E9B60100E9B60100F1890010D9890010E1
:20D5CC00E9B60100E9B60100B1AD0010E9B60100E9B60100E9B60100E9B60100E9B6010071
:20D5EC00F1720010E9B60100E9B60100E9B60100398F010041AE001045AE001049AE0010FA
:20D60C00E9B60100E9B60100E9B60100E9B60100D79701001D990100E9B6010061AC0100AA
:20D62C0035A300104DAB0100E1720010E9B6010031980100E5730010B1AE0010E9B60100B9
:20D64C00E9B60100E9B60100E9B60100E9B60100E9B60100E9B60100E9B60100E9B60100BE
:20D66C00E9B60100E9B60100E9B60100E9B60100E9B60100E9B60100E9B60100E9B601009E
:20D68C00E9B60100E9B60100E9B60100E9B60100E9B60100E9B60100E9B60100E9B601007E
:20D6AC00E9B60100C9D80010F5D80010E9B60100E9B60100E1D90010CB990100E9B6010021
:08D6CC00E9B60100E9B6010016
:20D6D40000613100D4D60100010000000000D0020A05000000000000020100000000000014
:20D6F4001000000000000000EC0000210000000000000000FCD60100E0D60100000000006F
:1ED71400E4D60100E8D60100ECD60100F0D60100F4D60100F8D6010024470020478106
:20D738003FCE010045CE0100C9CD010058D7010080460020C0D90100F8450020000000000B
:20D7580001000000600200000000000000000000000000000000000000000000000000004E
:20D7780000000000FF0000000000000000000000000000000000B4000028002800283075C1
:20D79800A000A000A000A00000080008E001F0001000100010001000100010005000500010
:20D7B800500010001000D0070000000000000F0001000500307507001000010081FF0000B8
:20D7D80000000100FF000000000000000000000000000000878601002F880100D58601000F
:20D7F80000FF0000000000000000000003081B0000000000D8D6010000000000000000003D
:20D818003408000000000000000000000000000000000000000000000000000000000000B4
:20D838000000000001000000D199010000000000099A0100C8000000C4090000010000002A
:20D858000000000000000000000000000000000000000000000000000000000000000000B0
:20D87800000000000000000000000000000000000000000000000000000000000000000090
:20D89800000000000000000000000000000000000000000000000000000000000000000070
:20D8B800000000000000000000000000000000000000000000000000000000000000000050
:20D8D800000000000000000000000000000000000000000000000000000000000000000030
:20D8F80000000000000000000001000053BF0100FF000000000000000000000000000000FD
:20D9180000000000000000000000000000000000000000000000000000000000FF000000F0
:20D938000000000000000000000000000000000000000000000000000000000000000000CF
:20D958000000000000000000000000000000000000000000000000000000000000000000AF
:20D9780000000000000000000000000000000000000000000000000000000000000000008F
:20D9980000000000000000000000000000000000000000000000000000000000000000006F
:10D9B80000000000010000000200000088000000D4
:20E00000000000000000000000000000000000000000000000000000000000000000000000
:20E020000000000000000000000000000000000000000000000000000000000000000000E0
:20E040000000000000000000000000000000000000000000000000000000000000000000C0
:20E060000000000000000000000000000000000000000000000000000000000000000000A0
:00000001FF
